:100000000C945A010C9477010C9477010C947701AD
:100010000C9477010C9477010C9477010C94770180
:100020000C9477010C9477010C9477010C94770170
:100030000C9477010C9477010C9477010C94770160
:100040000C9477010C9477010C9477010C94770150
:100050000C9477010C9477010C9477010C94770140
:100060000C9477010C9477016364696E6F707375FB
:1000700078585B000500000000000500005F0000EC
:1000800005000700070005147F147F1405242A7F4C
:100090002A120523130864620536495620500508C4
:1000A0000703000005001C224100050041221C003E
:1000B0000514083E08140508083E08080500B0703D
:1000C0000000050808080808050060600000052019
:1000D00010080402053E5149453E0500427F40009C
:1000E000057249494946052141494D330518141205
:1000F0007F10052745454539053C4A4949310541A9
:100100002111090705364949493605464949291E3D
:10011000050000140000050040340000050814220A
:10012000410005141414141405412214080005029A
:1001300001590906053E415D594E057C1211127C9C
:10014000057F49494936053E41414122057F4141EC
:10015000413E057F49494949057F09090909053E8D
:1001600041415173057F0808087F0500417F410028
:10017000052040413F01057F08142241057F404092
:100180004040057F020C027F057F0408107F053E7A
:100190004141413E057F09090906053E4151215E65
:1001A000057F091929460526494949320501017F7C
:1001B0000101053F4040403F051F2040201F053FF3
:1001C0004038403F056314081463050304780403B2
:1001D00005615149454305007F414100050204087E
:1001E0001020050041417F00050402010204054082
:1001F0004040404005070B00000005205454784063
:10020000057F28444438053844444428053844448C
:10021000287F0538545454180500087E0902051833
:10022000A4A49C78057F080404780500447D400060
:10023000052040403D00057F102844000500417F17
:100240004000057C04780478057C080404780538AF
:100250004444443805FC182424180518242418FCA8
:10026000057C080404080548545454240504043F3C
:100270004424053C4040207C051C2040201C053CBB
:100280004030403C054428102844054C9090907C18
:10029000054464544C4405000836410005000077CD
:1002A00000000500413608000504020408040500AA
:1002B0007F417F0011241FBECFEFD8E0DEBFCDBF4E
:1002C00011E0A0E0B1E0E0EEF3E302C005900D9292
:1002D000A63DB107D9F725E0A6EDB1E001C01D921A
:1002E000AD3EB207E1F70E9457100C94EE190C9442
:1002F00000003C9A3D9A449A459A1092B9008CE0CD
:100300008093B80084E08093BC0008958091B90088
:10031000887F089584EA8093BC008091BC0087FFA9
:10032000FCCF8091B900887F089585ED8093BC0053
:100330008091BC0084FDFCCF08958093BB0084E8CD
:100340008093BC008091BC0087FFFCCF8091B900F6
:10035000887F089584EC8093BC008091BC0087FF67
:10036000FCCF8091BB00089584E88093BC0080910D
:10037000BC0087FFFCCF8091BB000895FF920F93D4
:100380001F93CF93DF93D82FC62FF42E152F022F54
:100390000E948A01883069F0803159F0C0E00E94E3
:1003A00095018C2F90E0DF91CF911F910F91FF90DD
:1003B00008958D2F880F0E949D01883111F08032A1
:1003C00069F78C2F0E949D01883211F0803331F73C
:1003D000CF2DD12F0C0F1D2F111DC017D10739F0B4
:1003E00089910E949D018832C1F38033B1F3C1E04D
:1003F000D6CFCF92DF92EF92FF921F93CF93DF93EE
:10040000C82F162F7A01D22F0E948A01883021F03E
:10041000803111F0C0E03DC08C2F880F0E949D01FB
:10042000883111F08032B1F7812F0E949D0188320E
:1004300011F0803379F70E948A01883011F0803101
:1004400049F78C2F880F81600E949D01877F80343F
:1004500009F710E08D2F8150990BEC01812F90E06E
:100460006701C80ED91E8C179D074CF40E94AA0183
:10047000F60180838091B900807F8035B1F00E94C1
:10048000B401F60180838091B900807FC1E080359E
:1004900009F60E9495018C2F90E0DF91CF911F917A
:1004A000FF90EF90DF90CF9008951F5FD7CF880F18
:1004B0008093BA000895EF92FF920F931F93CF930A
:1004C000DF93C82F162FE72E042F0E948A010E9467
:1004D0008601883081F0803171F081E090E0909366
:1004E000D7018093D601DF91CF911F910F91FF909B
:1004F000EF900C94950188E70E949D010E9486016F
:10050000883111F0803249F78C2F0E949D010E94A2
:100510008601883211F0803301F7F12EC12FDE2DD4
:1005200089910E949D010E948601883211F08033DA
:1005300021F48C2F8F19801798F31092D701109205
:10054000D601D1CFCF93DF930F92CDB7DEB789839A
:1005500041E0BE016F5F7F4F80E00E945B020F9021
:10056000DF91CF910895E6EDF1E02381928131E0B2
:10057000390F328326952695269540E8249F9001D1
:1005800011242D513E4F290F311DF901808308950B
:100590008091D6019091D7010895CF93DF9381E2A6
:1005A0000E94A20280E00E94A2028FE70E94A202A3
:1005B00082E20E94A20280E00E94A20287E00E94E2
:1005C000A202C3EED1E040E1BE0180E40E945B02E2
:1005D000609685E0C33ED807B1F7DF91CF910895CB
:1005E000811103C08EEA0C94A2028FEAFCCFCF9354
:1005F000C82F81E80E94A2028C2FCF910C94A202F6
:1006000087FF8093D80108959091D901903410F418
:100610008093D9010895CF93C62F0E9400038C2F99
:10062000CF910C9404030E9479018EEA0E94A202E9
:1006300085ED0E94A20280EF0E94A20288EA0E9439
:10064000A2028FE30E94A20283ED0E94A20280E038
:100650000E94A2028DE80E94A20284E10E94A202EE
:1006600080E40E94A20280E20E94A20280E00E9436
:10067000A20281EA0E94A20288EC0E94A2028AEDF4
:100680000E94A20282E10E94A20281E80E94A202CC
:100690008FEF0E94A20289ED0E94A20281EF0E94C8
:1006A000A2028BED0E94A20280E20E94A20284EAD2
:1006B0000E94A20286EA0E94A2028EE20E94A20288
:1006C0008FEA0E94A20260E080E00E940B03E6ED48
:1006D000F1E086EA90E09583848312861186108685
:1006E0001382128208958830B8F4682F660F660F5F
:1006F000660F80E00E940B03E091D901E695E69534
:10070000E69580E8E89FF0011124ED51FE4F80E06E
:1007100011928F5F8038E1F70895883028F4880FB0
:10072000880F880F8093D90108958091D80108958A
:100730008091D90108958091D901829586958695F9
:10074000837008951F93CF93DF93162FEA010E94C1
:100750000B03E091D901E695E695E69580E8E89FE0
:10076000F00111248091D801E80FF11DED51FE4FE9
:100770002081177081E090E0A0E0B0E004C0880F15
:10078000991FAA1FBB1F1A95D2F7CF3FD10531F48D
:10079000822B8083DF91CF911F91089580958223D2
:1007A000F8CFEF92FF921F93CF93DF93C82FD62FEE
:1007B000142F7901681710F4C62FD82FDC1730F4E6
:1007C000DF91CF911F91FF90EF900895A701612FC6
:1007D0008C2F0E94A203CF5FF1CF6F927F928F92F6
:1007E0009F92AF92BF92CF92DF92EF92FF920F93C0
:1007F0001F93CF93DF93E82E962E680187FD77C075
:1008000047FD75C06FE3691508F471C0203408F026
:100810006EC02F5FF22EF9184F5F842E881A192DA3
:100820001770092D011BAF2CB12C88E090E09C01C2
:10083000211B3109A216B3060CF068C08A199B0966
:10084000CFEFD0E002C0D595C7958A95E2F77F2C0F
:10085000012E01C0CC0F0A94EAF76C2E602F8E2D6A
:100860000E940B039091D8012091D90126952695DD
:10087000269580E8289F90011124D0E0C095ED2FA7
:10088000E90F8D1248C0E093D8011919170D212FD7
:10089000200F822F90E0AC01495F5F4F4A155B0546
:1008A0000CF449C02F1518F5A81AB90A8FEF90E07B
:1008B00001C0880FAA94EAF7C82FC09568E0600FBE
:1008C0008E2D0E940B034091D8018091D90186950D
:1008D0008695869520E8829FC001112430E05C2F28
:1008E0005095E32FE40FD31346C0E093D801DF9176
:1008F000CF911F910F91FF90EF90DF90CF90BF901D
:10090000AF909F908F907F906F90089588E0782EA1
:10091000711ACFEF9DCFE20FF32FF11DED51FE4F76
:1009200080814FEFC416D10421F486298083DF5FD4
:10093000A6CF8C23FBCF085F602F8E2D0E940B0368
:100940003091D8018091D90186958695869560E889
:10095000869FC001112420E08D519E4FE22FE30FAE
:10096000D21303C0E093D80192CFE80FF92FF11D05
:10097000C0822F5FF3CFE80FF92FF11DED51FE4F2D
:1009800020816FEFC616D10421F42C2B20833F5F0A
:10099000A8CF2523FBCF0F931F93942F681718F42C
:1009A000482F862F642F8901262F492F682F892FE2
:1009B0000E94ED031F910F9108952F923F924F9245
:1009C0005F926F927F928F929F92AF92BF92CF92DF
:1009D000DF92EF92FF920F931F93CF93DF9300D09C
:1009E00000D00F92CDB7DEB77C01162F2901C09041
:1009F000D801D090D9018C2D860F87FF02C010E856
:100A00001C19242F30E0295F3F4F53E0359527957F
:100A10005A95E1F73D832C838D2D86958695869595
:100A2000820F893030F0F9013896E81BF109FD8317
:100A3000EC83FD2DF7702F2EBD2C00E0612E712C64
:100A400088E090E09C012F1B31093B832A83802E94
:100A5000912C8C819D818816990608F46EC00297AE
:100A600008F44FC06B2D8C2D0E940B039091D80180
:100A700099832091D90126952695269530E0B901D4
:100A80007695762F662777956795E1E08E1A91081F
:100A9000189DF001199DF00D1124EE0DFF1D1A8215
:100AA00088E090E07C01E218F10889819A81890F41
:100AB00090E04A811413A4C049814F5F140F6091E4
:100AC000E1017091E2018D519E4F40E06115710589
:100AD00069F0F901F695FE2FEE27F795E795E80FF7
:100AE000F91F40816130710509F0A0C01093D80151
:100AF0003695322F222737952795820F931FFC01B9
:100B000040836D2D8091D8010F900F900F900F9022
:100B10000F90DF91CF911F910F91FF90EF90DF9099
:100B2000CF90BF90AF909F908F907F906F905F908D
:100B30004F903F902F900C940B036B2D8C2D0E94A7
:100B40000B03019F90011124B90166197709809167
:100B5000D90186958695869590E04C019694982CBF
:100B60008824979487944091D80149832E0D3F1D86
:100B7000A12C39803A0C1A1118C03092D801DC012E
:100B8000B695BA2FAA27B795A795A30DB11D809149
:100B9000E1019091E201AD51BE4F892B79F18C9129
:100BA0008C9328E0B20E0F5F52CFF9014491022CD2
:100BB00001C0440F0A94EAF7E42F002379F0DB0127
:100BC0001196F701E60FF71FE491F0E00A8002C0EA
:100BD000F595E7950A94E2F7E42BBD01D401A30D46
:100BE000B11DAD51BE4FF1E04F16510411F44C91BF
:100BF000E42BEC93A3942F5F3F4FBBCF80E0D0CF8B
:100C0000860F971F4491DC01AD51BE4F842F90E0B9
:100C10000E2C02C0959587950A94E2F79C91892B3A
:100C20008C934A814F5F4A8331963FCF40955ECF88
:100C30007F928F929F92AF92BF92CF92DF92EF926C
:100C4000FF920F931F93CF93DF93F82E862FD42F0D
:100C5000C22FF7FC5AC047FD58C0603408F055C099
:100C6000203408F052C0F41212C098014F2D6C2F9E
:100C7000DF91CF911F910F91FF90EF90DF90CF9078
:100C8000BF90AF909F908F907F900C94CB04621395
:100C900013C09801462F6D2F8F2DDF91CF911F919B
:100CA0000F91FF90EF90DF90CF90BF90AF909F900B
:100CB0008F907F900C94D103C22ED12C262F30E040
:100CC000C61788F5A9014C195D096A01AD2EB12C32
:100CD0002F2D30E0DF1550F5A9014A195B095A01A3
:100CE0004C155D0544F19F2C9D1A882E8C1AC8174F
:100CF00010F08C2E881AE92CE69477247A94C81781
:100D000010F477247394FD1668F5DF91CF911F914D
:100D10000F91FF90EF90DF90CF90BF90AF909F909A
:100D20008F907F900895C21AD30AD0CFA21AB30A27
:100D3000AC14BD044CF4C81770F49F2DF82E892F05
:100D40009D2FDC2FC92FCFCF9C2FC82F892F9D2FF0
:100D5000DF2DF92EC8CF9C2FCF2DF92E9D2FD82F08
:100D6000892FC1CFA8016D2F8C2FAC14BD0414F0B6
:100D70006C2F8D2F0E94A203E818E7FE02C0C70D5A
:100D8000E90CDF5FC0CFEF92FF920F931F93CF93D9
:100D9000DF93E82EC62FF42ED22F87FD23C047FD08
:100DA00021C06034F8F42034E8F49801462F6F2D08
:100DB0000E94D10398014D2F6F2D8E2D0E94D103DB
:100DC00098014E2D6D2F8C2F0E94CB0498014F2D32
:100DD0006D2F8C2FDF91CF911F910F91FF90EF908E
:100DE0000C94CB04DF91CF911F910F91FF90EF9066
:100DF00008955F926F927F928F929F92AF92BF926F
:100E0000CF92DF92EF92FF920F931F93CF93DF93D6
:100E1000982EC62E142FD22E87FD77C047FD75C0A1
:100E20008FE3861708F471C0821708F46EC0802F14
:100E300090E0880F991FC3E0D0E0C81BD90BB12EFA
:100E4000B01AA92CA00E9701462F6B2D8A2D0E9457
:100E5000D10397014D2D6B2D8A2D0E94D103D01AFD
:100E6000C00E9701492D6D2D8C2D0E94CB0497014A
:100E7000412F6D2D8C2D0E94CB0410E0A7017C2CFE
:100E8000701A672D8A2C811A882D0E94A203A7014F
:100E90009C2C911A692D5A2C501A852D0E94A20360
:100EA000A701672D7B2C710E872D0E94A203A7013D
:100EB000692D9B2C900E892D0E94A203A7016D2CF9
:100EC000600E662D882D0E94A203A7018D2C810E35
:100ED000682D852D0E94A203A701662D872D0E94F3
:100EE000A203A701682D892D0E94A203812F90E003
:100EF000D7FF1BC0880F991F880F991F0696C80F30
:100F0000D91F1F5F011708F0B9CFDF91CF911F9153
:100F10000F91FF90EF90DF90CF90BF90AF909F9098
:100F20008F907F906F905F900895801B9109880F3C
:100F3000991F880F991F0A96C80FD91F0150E1CF3A
:100F4000AF92BF92CF92DF92EF92FF920F931F93D7
:100F5000CF93DF93D82FF62EB42EA22EC02F87FD6D
:100F60001BC047FD19C007FD17C08FE38617A0F00F
:100F7000821790F08E1580F086018D2F0E94180642
:100F80002E2D4C2F6A2D8B2D0E9418062F2D4D2FA4
:100F90006E2D8C2F0E941806DF91CF911F910F911B
:100FA000FF90EF90DF90CF90BF90AF9008955F9249
:100FB0006F927F928F929F92AF92BF92CF92DF9269
:100FC000EF92FF920F931F93CF93DF93B82EA62E2D
:100FD000C42F8901842F90E09C012B0D311D2038F6
:100FE00031050CF065C09C01260F311D2034310500
:100FF0000CF05EC0880F991F21E030E06901C81A2B
:10100000D90A88248394912CF12CE12CD0E06A2C0D
:101010006D0EA801662D7B2C7C0E872D0E94A203ED
:10102000A801662D6B2C6C1A862D0E94A2035A2CE7
:101030005D1AA801652D862D0E94A203A801652DC9
:10104000872D0E94A2036B2C6D0EA8017A2C7C0EBA
:10105000672D862D0E94A2035B2C5D1AA801672DC7
:10106000852D0E94A203A8017A2C7C1A672D852D5C
:101070000E94A203A801672D862D0E94A203DF5FB4
:10108000E80CF91C22E0820E911CC701880F991F01
:101090008C0D9D1D1816190644F4C1509C012E1983
:1010A0003F09790132E0C30ED11CCD1708F0AFCF54
:1010B000DF91CF911F910F91FF90EF90DF90CF9034
:1010C000BF90AF909F908F907F906F905F900895AA
:1010D00090E0E92FE695E695E69520E8E29FF0019D
:1010E0001124ED51FE4F20E081932F5F2038E1F76E
:1010F000985F903471F7089590E080E00C94680850
:101100000F931F930E94ED031F910F9108954F922B
:101110005F926F927F928F929F92AF92BF92CF9287
:10112000DF92EF92FF920F931F93CF93DF93862E60
:10113000922EC02F87FD53C047FD51C09FE39617E5
:1011400008F44DC0921708F44AC0202F30E0220F57
:10115000331F63E070E06B01C21AD30AB42EB01AD9
:10116000A82EA00E8701292D4B2D682D8A2D0E94B7
:10117000ED03D0E09C1A8C0E8701492C4C0E242DD7
:101180008A2D8D1B482F582C5C1A652D0E9418063D
:10119000692C6D0E262D8A2D8C1B482F782C7D1ADC
:1011A000672D0E941806242D8B2D8D0F482F652D3D
:1011B0000E941806262D8B2D8C0F482F672D0E941C
:1011C0001806ED2FF0E0D7FE1BC0EE0FFF1FEE0F4D
:1011D000FF1F3696CE0EDF1EDF5FCD1768F6DF915C
:1011E000CF911F910F91FF90EF90DF90CF90BF9024
:1011F000AF909F908F907F906F905F904F900895E9
:10120000EC1BF109EE0FFF1FEE0FFF1F3A96CE0EFB
:10121000DF1EC150E1CF2F923F924F925F926F92AB
:101220007F928F929F92AF92BF92CF92DF92EF9276
:10123000FF920F931F93CF93DF93CDB7DEB76B97DA
:101240000FB6F894DEBF0FBECDBF662E722EE982B8
:10125000DD86CC8687FDBDC047FDBBC007FDB9C09C
:101260002FE3261708F4B5C0271508F4B2C03E2DA9
:10127000303408F0AEC0E71430F4972D7E2C9983FB
:10128000942F402F092F761430F4962D672C792E49
:10129000982F842F492F482E512C842F90E0998726
:1012A0008887C62CD12CE72CF12CB201681B790B56
:1012B000072E000C880B990B0E94C6114B015C0194
:1012C000B6016E197F09072E000C880B990B0E943E
:1012D000C6119B01AC01C501B4010E941C116E87AF
:1012E0007F87888B998BA02FB0E0BB83AA83B981BD
:1012F0002B2E312C9701221933093F832E836885C9
:1013000079858A819B81681B790B072E000C880BDD
:10131000990B0E94C6114B015C01AE81BF81BD01DA
:10132000BB0F880B990B0E94C6119B01AC01C50134
:10133000B4010E941C116A8B7B8B8C8B9D8B6A8104
:101340007B8164197509072E000C880B990B0E948C
:10135000C6114B015C01B1016C197D09072E000C0F
:10136000880B990B0E94C6119B01AC01C501B40109
:101370000E941C11688779878A879B87312C212CD2
:10138000C201052C000CAA0BBB0B8E8B9F8BA88F68
:10139000B98FA62DA20DAB8F7A16A0F5EE80FF8037
:1013A0008A819B81092E000CAA0BBB0B8A839B832D
:1013B000AC83BD83A981A619BB0B6D01052C000C64
:1013C0006608770829812E0D2E873981321708F09B
:1013D00058C06B960FB6F894DEBF0FBECDBFDF913D
:1013E000CF911F910F91FF90EF90DF90CF90BF9022
:1013F000AF909F908F907F906F905F904F903F90B5
:101400002F900895B101032C000C880B990B0E94BA
:10141000C6114B015C016E897F89888D998D0E9470
:10142000C6116B017C012E853F8548895989C5010C
:10143000B4010E947B12A70196010E94AB100E948A
:1014400095116A8F062F288539854A855B85C501E8
:10145000B4010E947B12A70196010E94AB100E946A
:101460009511462F601710F46A8F402F0C851D854B
:101470002B8D622F8A8D0E9418069FEF291A390A38
:1014800088CFB7010F2C000C880B990B0E94C61156
:101490002A893B894C895D890E947B124B015C0142
:1014A0006A817B818C819D810E94C6119B01AC0168
:1014B000C501B4010E94AB100E9495116E83062FE6
:1014C000B6016E0D7F1D072E000C880B990B0E9434
:1014D000C611288539854A855B850E947B124B01A0
:1014E0005C01C301B2010E94C6119B01AC01C501A0
:1014F000B4010E94AB100E949511462F601710F4A2
:101500006E83402F0C851D852E85622F8E810E9453
:101510001806BFEFEB1AFB0A55CFAF92BF92CF92DE
:10152000DF92EF92FF920F931F93CF93DF93E82EFA
:10153000D62EC42F5901842F90E09C012E0D311D11
:1015400020383105B4F4860F911D803491058CF458
:1015500081E0F82EF41AC42EC194CC0C8501242FFE
:10156000260F4E2D6C1B8E2D0E941806D0E0DC1726
:1015700058F0DF91CF911F910F91FF90EF90DF9086
:10158000CF90BF90AF900895F7FC04C0C150C394B2
:10159000C394FC0CDF5F8D2F880F8F5FF80E4E2DEC
:1015A0004D0F95010D2D0C1B602F1C2F1D0D812F34
:1015B0000E94CB044E2D4D1B9501602F812F0E9460
:1015C000CB040D2D0D1B1D2D1D0F95014C2F4E0D08
:1015D000602F812F0E94CB0495014E2D4C1B602F54
:1015E000812F0E94CB04C3CFCF93DF93D82FC62F78
:1015F00087E20E94A20280E00E94A2028D2F0E9438
:10160000A20280E00E94A2028C2F0E94A20280E02F
:101610000E94A2028FEF0E94A2028FE2DF91CF917F
:101620000C94A202CF93DF93D82FC62F86E20E949C
:10163000A20280E00E94A2028D2F0E94A20280E0FE
:101640000E94A2028C2F0E94A20280E00E94A202AD
:101650008FEF0E94A2028FE2DF91CF910C94A20241
:10166000CF93DF93D82FC62F83EA0E94A20280E097
:101670000E94A20280E40E94A2028AE20E94A202C8
:1016800080E00E94A2028D2F0E94A20280E00E94B0
:10169000A2028C2F0E94A20281E00E94A2028FE28D
:1016A000DF91CF910C94A202CF93DF93D82FC62F56
:1016B00083EA0E94A20280E00E94A20280E40E94CB
:1016C000A20289E20E94A20280E00E94A2028D2F63
:1016D0000E94A20280E00E94A2028C2F0E94A2021D
:1016E00081E00E94A2028FE2DF91CF910C94A202CE
:1016F0008EE20C94A2028091DA019091DB01873A8C
:10170000910551F486EA90E09093DB018093DA0131
:101710008091DA010C94A20287EA90E0F5CF9F92C3
:10172000AF92BF92CF92DF92EF92FF920F931F93EF
:10173000CF93DF93C82EB62ED42FD81BDD24D3949D
:10174000DD0E261B01E0020FC62FC770162F1C1BD3
:10175000E02EF12C88E090E09C012C1B3109E21670
:10176000F3060CF065C09C012E193F098FEF90E045
:1017700002C0959587952A95E2F7902EA82E0C2EFB
:1017800001C0AA0C0A94EAF7612F8C2D0E940B036A
:101790008091D8012091D90126952695269590E82B
:1017A000299F9001112490E0E92FE80F9D1508F47E
:1017B00044C08F5F8D0F8093D801CB19C90D2C2F9A
:1017C000210F822F90E0AC01495F5F4F4E155F05FE
:1017D000F4F1201708F5E81AF90ACFEF01C0CC0F91
:1017E000EA94EAF768E0610F8C2D0E940B034091A8
:1017F000D8018091D90186958695869520E8829FAB
:10180000C001112430E0E32FE40F3D1508F443C07C
:101810004F5FD40FD093D801DF91CF911F910F91DB
:10182000FF90EF90DF90CF90BF90AF909F90089582
:1018300088E0982E9C1A8FEFA1CFE20FF32FF11DB5
:10184000ED51FE4F40814A2540839F5FADCF185F29
:10185000612F8C2D0E940B038091D8012091D9011A
:1018600026952695269590E8299F9001112490E0D1
:10187000E92FE80F9D1528F08F5F8D0F8093D80119
:101880009ECFE20FF32FF11DED51FE4F40814095A9
:1018900040839F5FEDCFE80FF92FF11DED51FE4F13
:1018A00020812C27209520833F5FADCF67FD1EC090
:1018B0004034E0F422303105C8F49093DD01809388
:1018C000DC016093DE014093DF0150E0CA01019723
:1018D00097FD079643E0959587954A95E1F78F5FC9
:1018E0008093E0013093E2012093E1010895A6ED99
:1018F000B1E018962C9118971A969C911A97299FE7
:10190000900111242F5F3F4F082E000C990B8097F8
:10191000289FA001299F500D389F500D1124169625
:10192000ED91FC91E40FF51F84918F5F08950F9363
:101930001F93CF93DF938C01D0E0C0E0F801819139
:101940008F01811106C0CE01DF91CF911F910F91C0
:1019500008950E94770CC80FD11DF0CF0F931F93ED
:10196000CF93DF93EC01FC01849110E000E021961D
:10197000811106C0C801DF91CF911F910F91089589
:101980000E94770C080F111DFE018491F0CF2F9259
:101990003F924F925F926F927F928F929F92AF92FF
:1019A000BF92CF92DF92EF92FF920F931F93CF934C
:1019B000DF9300D000D000D0CDB7DEB71091D801B2
:1019C0000091D90180522091DE019091E001299F80
:1019D000900111242F5F3F4F482F42037001439F16
:1019E000F00C1124C70101969A838983E091DC01F0
:1019F000F091DD01EE0DFF1D2490902F9770C92E00
:101A0000D02E1D8288E090E0FC01EC19F109FC83E6
:101A1000EB838091E001ED81E81708F469C08091C3
:101A2000DF018295869586958370800F9927991F8F
:101A3000202F229526952695237028171906D1F177
:101A40006D2D812F0E940B03D090D8018091D90178
:101A500086958695869590E0AC015695542F44273F
:101A6000579547952091E00130E0FD81EF0EF11C84
:101A7000E091DC01F091DD01EE0EFF1EB12C68E07B
:101A800070E06C197109AB2DAD0DB21096C0A0932A
:101A9000D8012091E1013091E201232B59F4969570
:101AA000982F8827979587958D519E4FA80FB92F0E
:101AB000B11D1C9281E0810F602F820D26960FB61A
:101AC000F894DEBF0FBECDBFDF91CF911F910F9174
:101AD000FF90EF90DF90CF90BF90AF909F908F904E
:101AE0007F906F905F904F903F902F900C940B03DE
:101AF0006D2D812F0E940B0329813A81FD812F0FCB
:101B0000311DB90161507109A091DC01B091DD0175
:101B10008091E00190E0A090E101B090E20150904E
:101B2000D8017090D90176947694769440E8749EAA
:101B3000400111242A0F3B1F612C362C350C6210FA
:101B400013C03092D801AB2849F460E8769EF001CA
:101B50001124ED51FE4FE30DF11D108288E0D80EE7
:101B60009D819F5F9D8355CFF90144910C2C01C04D
:101B7000440F0A94EAF7442EFD81FF2371F0FD0122
:101B8000E60FF71FE491F0E00B8002C0F595E795B2
:101B90000A94E2F74E2A680F791FF401E30DF11D54
:101BA000ED51FE4F41E0A416B10411F44081442AE6
:101BB00040826394280F391FC0CFA40FB52FB11DE9
:101BC000F701C490AD51BE4FEC2DF0E0062E02C0DF
:101BD000F595E7950A94E2F7FC91EF2BEC93B3941B
:101BE000E20EF31E50CFCF93DF93EC018991811168
:101BF00003C0DF91CF9108952091D8019091DE012B
:101C0000290F3327331F203831059CF70E94C70C5A
:101C1000EDCFCF93DF93EC01FE018491811103C0DE
:101C2000DF91CF91089521962091D8019091DE0106
:101C3000290F3327331F2038310594F70E94C70C32
:101C4000EBCFCF92DF92EF92FF92CF93DF93CDB79E
:101C5000DEB72C970FB6F894DEBF0FBECDBF61156F
:101C600071058105910581F480E30E94C70C2C96D3
:101C70000FB6F894DEBF0FBECDBFDF91CF91FF90BE
:101C8000EF90DF90CF90089561157105810520E8F0
:101C9000920769F31C861B8620E3298330E097FFB7
:101CA00008C090958095709561957F4F8F4F9F4F9D
:101CB00031E020E361305AEC75075AE985075BE3B0
:101CC0009507B4F06B017C01EAECDE1AEAE9EE0A52
:101CD000EBE3FE0AF1E0CF16FAECDF06FAE9EF06D5
:101CE000FBE3FF060CF499C074598543974722E340
:101CF0002A8320E3422F2F5F611551EE750755EFC0
:101D0000850755E095070CF08CC04B8320E3422FEC
:101D10002F5F6038E6E97E07E8E98E0791050CF051
:101D200084C04C8320E3422F2F5F6034F2E47F07AE
:101D3000FFE08F0791050CF07DC04D8320E3422F1B
:101D40002F5F603A56E8750751E0850791050CF062
:101D500076C04E8320E3422F2F5F6031E7E27E079B
:101D6000810591050CF070C04F8320E3422F2F5F57
:101D7000683EF3E07F07810591050CF06AC0488753
:101D800020E3422F2F5F64367105810591050CF029
:101D900065C0498720E3422F2F5F6A3071058105B6
:101DA00091050CF060C04A87605D6B8790E081E030
:101DB000890FE1E0F0E0EC0FFD1FE80FF11D20813D
:101DC000203309F455C0332349F0E1E0F0E0EC0F93
:101DD000FD1FE90FF11D8DE28083892F2AE0281B6A
:101DE00060E090E0A1E0B0E0AC0FBD1FA60FB11D18
:101DF000AD01480F591FFA0130813C936F5F2617E0
:101E000088F7E1E0F0E0EC0FFD1FE60FF11D108216
:101E1000CE0101960E94F30D2ACFC701B60121E33E
:101E200067CF715E854F954065CF60587649884988
:101E300091096DCF605472448F40910974CF605AFC
:101E40007648814091097BCF6051774281099109A1
:101E500082CF685E73408109910988CF6456710909
:101E6000810991098ECF6A5071098109910993CF37
:101E7000982F9DCF8F929F92AF92BF92CF92DF9279
:101E8000EF92FF926B017C0149015A0120E030E0A2
:101E9000A9010E941711811111C080E30E94C70C93
:101EA0008EE20E94C70C80E3FF90EF90DF90CF900E
:101EB000BF90AF909F908F900C94C70C20E030E0C3
:101EC00040E05FECC701B6010E94761287FD47C073
:101ED00020E030E040E05FE4C701B6010E94171146
:101EE00087FF3DC020E030E0A901C701B6010E9494
:101EF000171187FF07C0F7FAF094F7F8F0948DE216
:101F00000E94C70CC701B6010E948E110E94210ECB
:101F10008EE20E94C70CC701B6010E9495110E9473
:101F2000C4119B01AC01C701B6010E94AA106B014C
:101F30007C01C501B4010E94C4119B01AC01C70121
:101F4000B6010E947B120E948E11FF90EF90DF90ED
:101F5000CF90BF90AF909F908F900C94210EFF90E8
:101F6000EF90DF90CF90BF90AF909F908F900895AB
:101F70009FE9980F9A3108F48052815425E0829F9E
:101F8000C00111248E5D9E4F08955F926F927F92E3
:101F90008F929F92AF92BF92CF92DF92EF92FF9279
:101FA0000F931F93CF93DF93942E6C01C0E010E04A
:101FB0009AE0892E27E0722E37E0E32EE60EF60136
:101FC00081916F01811110C0DF91CF911F910F910D
:101FD000FF90EF90DF90CF90BF90AF909F908F9049
:101FE0007F906F905F9008958A3019F4CF5FF12C45
:101FF00035C0FF24F394F10E803281F10E94B80FB6
:10200000D92DC89DD00D11245E2C179D500C112484
:102010005C0185E0682E6D0E10E000E0F501808126
:1020200090E0002E02C0959587950A94E2F780FF14
:1020300007C04FEF50E06D2F852D801B0E94A2033B
:102040000F5F1F4F0830110549F7DF5FFFEFAF1A31
:10205000BF0A6D12E1CF82E1F81641F21F2DAFCF1A
:102060001092C50087E68093C400E0ECF0E0808128
:102070008D7F808386E08093C20088E18093C100D9
:102080000895CF93C82F8A3019F48DE00E94411033
:102090008091C00085FFFCCFC093C600CF9108950A
:1020A0008091C00087FFFCCF8091C60008950E94F8
:1020B000130330E020E048E065E084E790E00E9410
:1020C000560C60E080E00E940B030E9430108EE00E
:1020D00091E09093EA058093E90580E091E0909388
:1020E000E8058093E70584E690E00E94E812EC01A1
:1020F00082EBC82E81E0D82E98EBE92E91E0F92EE4
:1021000008EC11E084EA91E00E942914DF93CF9358
:10211000DF92CF920E945514DF93CF93FF92EF92FC
:102120000E9455140E947C0840E060E0CE010E94AD
:10213000C50FDF93CF931F930F930E9413140E9438
:10214000CD028DB79EB70C960FB6F8949EBF0FBE0A
:102150008DBFD8CF5058BB27AA270E94C2100C941D
:102160003C120E942E1238F00E94351220F039F4F1
:102170009F3F19F426F40C942B120EF4E095E7FB24
:102180000C942512E92F0E944D1258F3BA176207DA
:1021900073078407950720F079F4A6F50C946F1265
:1021A0000EF4E0950B2EBA2FA02D0B01B901900172
:1021B0000C01CA01A0011124FF27591B99F0593FB6
:1021C00050F4503E68F11A16F040A22F232F342FFE
:1021D0004427585FF3CF469537952795A795F0404C
:1021E0005395C9F77EF41F16BA0B620B730B840B61
:1021F000BAF09150A1F0FF0FBB1F661F771F881F19
:10220000C2F70EC0BA0F621F731F841F48F4879570
:1022100077956795B795F7959E3F08F0B0CF939562
:10222000880F08F09927EE0F9795879508950E94DB
:10223000011208F481E008950E9430110C943C12C0
:102240000E94351258F00E942E1240F029F45F3F90
:1022500029F00C94251251110C9470120C942B122D
:102260000E944D1268F39923B1F3552391F3951B06
:10227000550BBB27AA2762177307840738F09F5FA7
:102280005F4F220F331F441FAA1FA9F335D00E2E14
:102290003AF0E0E832D091505040E695001CCAF781
:1022A0002BD0FE2F29D0660F771F881FBB1F261744
:1022B00037074807AB07B0E809F0BB0B802DBF011B
:1022C000FF2793585F4F3AF09E3F510578F00C94EA
:1022D00025120C9470125F3FE4F3983ED4F3869578
:1022E00077956795B795F7959F5FC9F7880F911D0B
:1022F0009695879597F90895E1E0660F771F881FF7
:10230000BB1F621773078407BA0720F0621B730BA9
:10231000840BBA0BEE1F88F7E09508950E94951183
:102320006894B1110C94701208950E94551288F0AF
:102330009F5798F0B92F9927B751B0F0E1F0660F89
:10234000771F881F991F1AF0BA95C9F714C0B130CA
:1023500091F00E946F12B1E008950C946F12672FF4
:10236000782F8827B85F39F0B93FCCF386957795F9
:102370006795B395D9F73EF49095809570956195E2
:102380007F4F8F4F9F4F0895E89409C097FB3EF40D
:1023900090958095709561957F4F8F4F9F4F9923B2
:1023A000A9F0F92F96E9BB279395F6958795779530
:1023B0006795B795F111F8CFFAF4BB0F11F460FFF0
:1023C0001BC06F5F7F4F8F4F9F4F16C0882311F048
:1023D00096E911C0772321F09EE8872F762F05C05C
:1023E000662371F096E8862F70E060E02AF09A95F7
:1023F000660F771F881FDAF7880F9695879597F9EC
:102400000895990F0008550FAA0BE0E8FEEF161685
:102410001706E807F907C0F012161306E407F507D8
:1024200098F0621B730B840B950B39F40A2661F04C
:10243000232B242B252B21F408950A2609F4A140EF
:10244000A6958FEF811D811D089597F99F6780E8FC
:1024500070E060E008959FEF80EC089500240A94F6
:102460001616170618060906089500240A9412166F
:102470001306140605060895092E0394000C11F4A2
:10248000882352F0BB0F40F4BF2B11F460FF04C04F
:102490006F5F7F4F8F4F9F4F089557FD9058440FA8
:1024A000551F59F05F3F71F04795880F97FB991FB3
:1024B00061F09F3F79F08795089512161306140670
:1024C000551FF2CF4695F1DF08C0161617061806FD
:1024D000991FF1CF86957105610508940895E894D8
:1024E000BB2766277727CB0197F908950E94011231
:1024F00008F48FEF08950E948E120C943C120E94F3
:102500002E1238F00E94351220F0952311F00C9411
:1025100025120C942B1211240C9470120E944D124F
:1025200070F3959FC1F3950F50E0551F629FF00126
:10253000729FBB27F00DB11D639FAA27F00DB11D3F
:10254000AA1F649F6627B00DA11D661F829F2227C8
:10255000B00DA11D621F739FB00DA11D621F839F4F
:10256000A00D611D221F749F3327A00D611D231F25
:10257000849F600D211D822F762F6A2F11249F5773
:1025800050409AF0F1F088234AF0EE0FFF1FBB1F76
:10259000661F771F881F91505040A9F79E3F510535
:1025A00080F00C9425120C9470125F3FE4F3983E77
:1025B000D4F3869577956795B795F795E7959F5FDF
:1025C000C1F7FE2B880F911D9695879597F9089571
:1025D0000F931F93CF93DF938230910510F482E025
:1025E00090E0E091E505F091E60530E020E0B0E014
:1025F000A0E0309799F42115310509F447C0281B54
:10260000390B24303105C0F58A819B816115710534
:1026100071F1FB0193838283FE0111C040815181DE
:102620000281138148175907F8F04817590799F4A0
:10263000109761F012960C93129713961C93329692
:10264000CF01DF91CF911F910F9108950093E50580
:102650001093E605F4CF2115310519F04217530701
:1026600018F49A01BD01EF01DF01F801C2CF909388
:10267000E6058093E505D0CFFE01E20FF31F8193BD
:1026800091932250310939832883DACF2091E305D1
:102690003091E405232B41F420911E0130911F015C
:1026A0003093E4052093E30520911C0130911D0136
:1026B0002115310541F42DB73EB7409120015091CD
:1026C0002101241B350B4091E3055091E40542178D
:1026D000530708F0B5CF241B350B2817390708F42A
:1026E000AFCFBC016E5F7F4F2617370708F4A8CF26
:1026F000640F751F7093E4056093E305FA018193FD
:1027000091939ECFCF93DF930097E9F0FC0132972E
:1027100013821282C091E505D091E605DE0130E01A
:1027200020E02097A1F420813181820F931F209116
:10273000E3053091E4052817390709F067C0F093E5
:10274000E405E093E305DF91CF910895DA01AE1738
:10275000BF0708F040C012964D915C9113979D0100
:102760004115510599F7D9011396FC93EE931297F1
:102770004D915D91A40FB51FEA17FB0779F4808195
:1027800091810296840F951FD90111969C938E9387
:102790008281938113969C938E931297B0E0A0E070
:1027A0008A819B810097B9F5FE0181919191E80F93
:1027B000F91F8091E3059091E4058E179F0719F6A4
:1027C000109761F51092E6051092E505D093E405A7
:1027D000C093E305B8CFB383A28340815181840FB6
:1027E000951FA817B90771F44E5F5F4F8D919C91AB
:1027F0001197480F591F5183408312968D919C91D8
:10280000938382832115310509F0ADCFF093E6055E
:10281000E093E50598CFDE01EC01C2CF13961C9240
:102820001E921297D3CFB0E0A0E0E9E1F4E10C945E
:10283000C719AE014B5F5F4FFA0161917191AF0112
:102840008091E9059091EA050E946B14E2E00C94F6
:10285000E3190F931F93CF93DF93E091E905F09174
:10286000EA05238110E000E021FD0EC00FEF1FEF0D
:10287000C801DF91CF911F910F9108950995892B80
:1028800011F00FEF1FEFCE01EC0189916091E90586
:102890007091EA05DB011896ED91FC918111EECF64
:1028A0008AE00995892B21F3E1CFB0E0A0E0EBE5C8
:1028B000F4E10C94C719AE014B5F5F4FFA016191CF
:1028C0007191AF018091E7059091E8050E94A817EA
:1028D000E2E00C94E319ABE0B0E0E1E7F4E10C9442
:1028E000B7197C013B018A01FC01178216828381A2
:1028F00081FFB9C19AE0292ECE0101965C01F70152
:102900009381F30193FD859193FF81913F0188238A
:1029100009F446C1853239F493FD859193FF819185
:102920003F01853229F4B70190E00E940E19E7CFEC
:10293000912C412C512CFFE1F51538F08B3209F127
:1029400088F4803201F1833221F157FC3AC020ED46
:10295000280F2A3040F556FE1FC0929C200D1124EE
:10296000922E06C08D3291F0803379F7689450F83A
:10297000F30193FD859193FF81913F018111DBCF9D
:1029800020C0689451F8689452F8F2CF689453F8D4
:10299000EFCF689454F8ECCF429C200D1124422EC6
:1029A000689455F8E5CF8E3229F456FCF9C0689446
:1029B00056F8DECF8C3619F4689457F8D9CF88369C
:1029C000B9F2982F9F7D95549330C0F08336A1F1D2
:1029D0008337C1F1833509F05BC0F801C190D19014
:1029E0008F01692D70E056FC02C06FEF7FEFC601CA
:1029F0000E94BE184C01689457F80AC00C5F1F4F24
:102A00002FE3298388248394912C6501E89457F857
:102A100053FC04C04814190409F018F5342C81142F
:102A2000910431F5332009F46ACFB70180E290E0D8
:102A30000E940E193A94F6CFF801808189830E5FC7
:102A40001F4FE0CFF801C190D1908F01692D70E048
:102A500056FC02C06FEF7FEFC6010E94C9184C01FF
:102A6000D5CFB70180E290E00E940E194A94D2CFF0
:102A7000F60157FC859157FE81916F01B70190E0F7
:102A80000E940E1931103A94F1E08F1A9108C7CFC5
:102A9000843619F0893609F074C0F80157FE6AC00F
:102AA00061917191819191918F01252D2F76D22E77
:102AB00097FF09C090958095709561957F4F8F4FD6
:102AC0009F4F6894D7F82AE030E0A5010E9456197C
:102AD000C82ECA188C2C5D2CD6FE0CC0E89450F879
:102AE000C91440F4D4FE05C0D2FC03C0FD2DFE7E07
:102AF0005F2E892C54FE8FC0FE01EC0DF11D8081EC
:102B0000803309F081C0252D297E522E852D8870B5
:102B1000382E53FC8FC050FE89C09C2C841418F4AE
:102B20004C0C942C981854FE8BC0B70180E390E0B5
:102B30000E940E1952FE09C088E790E051FE02C0C3
:102B400088E590E0B7010E940E19C91408F484C00A
:102B5000CA94D12C9FEFC91AD90ACA0CDB1CF60102
:102B600082916F01B70190E00E940E19AC14BD0470
:102B7000B1F758CF61917191072E000C880B990B1A
:102B800093CFD52CE894D4F82AE030E0853739F19A
:102B9000952D997FD92E8F3601F148F48835A9F00B
:102BA000F701868197812B96E2E10C94D319803747
:102BB00049F08837A9F7D4FE02C06894D2F820E122
:102BC00030E00DC06894D4F8F6CF54FE03C0E92F6E
:102BD000E660DE2E20E132E002C028E030E0F801BD
:102BE000D7FE0DC061917191819191918F01A501E5
:102BF0000E945619C82ECA18E894D7F86BCF619175
:102C0000719190E080E0F2CF52FC02C083947ECFBD
:102C1000839483947BCF852D867809F477CFF6CF84
:102C2000B70180E290E00E940E1983948414C0F3EF
:102C3000312C79CF342C3818841408F474CFF8CFA1
:102C4000852D867809F481CF8BE251FE80E257FC16
:102C50008DE2B70190E077CFB70180E390E00E946A
:102C60000E199A9472CF8FEF9FEF9DCF20FD09C070
:102C7000FC0123FD05C022FF02C0738362835183E0
:102C80004083089533E044FD10C034E046FD0DC09C
:102C9000DB01FC01AA0FBB1FEE1FFF1F1094D1F731
:102CA0006A0F7B1F8E1F9F1F31E0660F771F881FE3
:102CB000991F3150D1F7620F711D811D911D08952B
:102CC0000F931F93CF93DF938C01C8010E94D418F8
:102CD000EC0197FD08C00E94AA18892BB1F7B80132
:102CE000CE010E943E19CE01DF91CF911F910F912D
:102CF00008958F929F92AF92BF92EF92FF920F939F
:102D00001F93CF93DF938C01D62F7A01B22E0E94AE
:102D1000D4189C0133272B32310529F02D3231058F
:102D2000A9F46894B7F8D15061F480E0DF91CF91B5
:102D30001F910F91FF90EF90BF90AF909F908F9059
:102D40000895C8010E94D41897FDEFCFCB2DCD7FF9
:102D50002B2D2073F9F48033E9F4AA24AA94AD0E44
:102D600089F0C8010E94D41897FD0CC0282F2F7D30
:102D7000283561F4C264D25029F0C8010E94D418E9
:102D800097FF08C0812C912C54011BC0B6FE2BC0AC
:102D9000C260DA2D812C912C540120ED280F2830AF
:102DA00028F1C4FD09C02A3008F1C6FF05C02F7DF7
:102DB0003FEE320F3630C8F0B8010E943E19C1FF15
:102DC000B4CFC7FF08C0B094A09490948094811CA5
:102DD000911CA11CB11C2C2FB501A401C7010E949C
:102DE000361681E0A3CFC261D4CF27504C2FC50146
:102DF000B4010E9442164B015C01C260D15009F33C
:102E0000C8010E94D41897FFC8CFDBCFA0E2B0E082
:102E1000ECE0F7E10C94BD195C01962E7A01CE012D
:102E200001966C0180E2F60111928A95E9F7F501AD
:102E30008380890150E040E0B0E020E0A0E061E064
:102E400070E0F80183FC959183FE9191892F8F01A9
:102E5000911107C010E000E0C801A096ECE00C94CE
:102E6000D9199E3519F44115510531F1A4171506EC
:102E7000ECF49D3549F19D32C9F4222309F1E82F84
:102E8000E695E695E695EC0DFD2DF11D982F9770D2
:102E90009B0101C0220F9A95EAF79081292B20838C
:102EA0008B1781F08B1730F48F5FE9CF2111E7CFBB
:102EB000B92FE5CF8150E3CFA1E04F5F5F4FC1CF86
:102EC00021E0FBCF20E0F9CF222319F08E81806230
:102ED0008E83AA2361F0F6019E012F5D3F4FDF0133
:102EE0008D9180958083FD01A217B307C1F78824D7
:102EF0008394C5010E94D41897FD16C0E82FE6956B
:102F0000E695E695EC0DFD2DF11D208130E0AC013C
:102F10004770552702C0359527954A95E2F720FD61
:102F200006C0B5010E943E19882059F093CFE114E4
:102F3000F10419F0F70181937F019A94812C91108B
:102F4000D8CFE114F10409F487CFF701108284CFC0
:102F5000B0E0A0E0EEEAF7E10C94BB195C01EB01F4
:102F6000742E652EFC0117821682C12CF501F380A8
:102F7000FE01F3FC8591F3FE8191182FEF01882368
:102F8000E9F090E00E94AA18892B21F0C5010E9467
:102F90006016ECCF153241F4FE01F3FC1591F3FEFF
:102FA0001191EF01153269F4C5010E94D41897FD03
:102FB0008CC01817D9F2B5010E943E198C2D90E0F3
:102FC00088C000E01A3231F4F3FC1591F3FE119140
:102FD000EF0101E0D12C20ED210F2A3048F101FF53
:102FE00037C0DD2059F31836B1F11C3609F43DC065
:102FF000112321F3612F70E088E690E00E94B3185E
:10300000892BE1F2F12CE12C00FD06C0E72DF62D15
:10301000E190F1907E2E6F2E1E3679F5F5014681F6
:10302000578170E060E0202FC7010E9436169ECFC6
:1030300002606D2D70E090E080E040E20E94421658
:10304000D62EFE01F3FC1591F3FE1191EF01C3CFD3
:10305000DD24DA94C8CFFE01F3FC1591F3FE119143
:10306000EF01183609F0C4CF08600460FE01F3FCDC
:103070001591F3FE1191EF01BBCF1336B1F401FDB1
:1030800002C0DD24D394C5010E94D41897FD1DC051
:10309000E114F10419F0F70181937F01DA94D11062
:1030A000F2CF00FD63CFC39461CF1B35B9F49E010D
:1030B000A7016D2DC5010E940617EC01892B89F728
:1030C000F5018381807309F479CF8FEF9FEFC110F1
:1030D00075CFCDB7DEB7EEE00C94D719C5010E94CD
:1030E000601697FDF2CF1F3699F130F4143641F097
:1030F000193639F0006405C01337A9F01537D1F738
:103100000062202FA7016D2DC5010E947916811143
:10311000C8CFD6CFE114F10419F0F70181927F01F5
:10312000DA94DD2071F0C5010E94D4184C0197FD9E
:1031300008C00E94AA18892B69F3B501C4010E9436
:103140003E19E114F10409F4ACCFF7011082A9CFC4
:103150000061D7CF91110C94B419803219F08950C5
:103160008550C8F70895FC010590061621F000204F
:10317000D9F7C00108953197CF010895FC0105905A
:10318000615070400110D8F7809590958E0F9F1F69
:103190000895FC016150704001900110D8F78095AE
:1031A00090958E0F9F1F0895CF93DF93EC012B8195
:1031B00020FF2FC026FF0CC02F7B2B838E819F8189
:1031C00001969F838E838A8190E0DF91CF9108954D
:1031D00022FF14C0E881F9818081082E000C990B30
:1031E00020620097A9F03196F983E8832E813F8110
:1031F0002F5F3F4F3F832E839927E7CFEA85FB85DB
:10320000099597FFF3CF2B81019631F080E2282BAF
:103210002B838FEF9FEFD9CF80E1F9CF0F931F93CF
:10322000CF93DF93182F092FEB018B8181FD09C00C
:103230001FEF0FEF812F902FDF91CF911F910F91F3
:10324000089582FF14C02E813F818C819D812817B3
:1032500039073CF4E881F981CF010196998388838D
:1032600010838E819F8101969F838E83E3CFE885B3
:10327000F985812F0995892BA1F3DACFFB012381F1
:1032800020FF11C026FD0FC08F3F980771F0828389
:103290002F7D206423832681378121503109378394
:1032A0002683992708958FEF9FEF0895FA01AA27A3
:1032B000283051F1203181F1E8946F936E7F6E5F79
:1032C0007F4F8F4F9F4FAF4FB1E03ED0B4E03CD027
:1032D000670F781F891F9A1FA11D680F791F8A1F0A
:1032E000911DA11D6A0F711D811D911DA11D20D071
:1032F00009F468943F912AE0269F11243019305D2B
:103300003193DEF6CF010895462F4770405D41931B
:10331000B3E00FD0C9F7F6CF462F4F70405D4A3368
:1033200018F0495D31FD4052419302D0A9F7EACF30
:10333000B4E0A6959795879577956795BA95C9F75F
:1033400000976105710508959B01AC010A2E069452
:103350005795479537952795BA95C9F7620F731F0B
:10336000841F951FA01D08959927882708952F92DF
:103370003F924F925F926F927F928F929F92AF9205
:10338000BF92CF92DF92EF92FF920F931F93CF9352
:10339000DF93CDB7DEB7CA1BDB0B0FB6F894DEBFE9
:1033A0000FBECDBF09942A88398848885F846E840F
:1033B0007D848C849B84AA84B984C884DF80EE8059
:1033C000FD800C811B81AA81B981CE0FD11D0FB662
:1033D000F894DEBF0FBECDBFED010895F894FFCF86
:1033E000000000010000000000005010000000007C
:1033F0000002000000004110000000000000ED0588
:103400002000304848784878587058783840404014
:10341000387048484870784078407878407040402C
:1034200038405848304848784848303030303008C4
:103430000848483048506050484040404078446C0C
:103440005444444868584848784848487878487808
:1034500040407848487808784878504838403008E4
:103460007078202020204848484878444444281058
:103470004444545430442810284448487810107C60
:103480000810207C48656C6C6F20776F726C64212B
:103490000A002563252A63002539395B302D3961FF
:1034A0002D7A412D5A205D00596F752077726F7407
:0634B000652025730A00EF
:00000001FF
