:100000000C9454010C9471010C9471010C947101C5
:100010000C9471010C9471010C9471010C94710198
:100020000C9471010C9471010C9471010C94710188
:100030000C9471010C9471010C9471010C94710178
:100040000C9471010C9471010C9471010C94710168
:100050000C9471010C9471010C9471010C94710158
:100060000C9471010C947101050000000000050062
:10007000005F000005000700070005147F147F14CF
:1000800005242A7F2A12052313086462053649567F
:10009000205005080703000005001C224100050050
:1000A00041221C000514083E08140508083E0808F3
:1000B0000500B07000000508080808080500606029
:1000C0000000052010080402053E5149453E050088
:1000D000427F4000057249494946052141494D3357
:1000E000051814127F10052745454539053C4A4936
:1000F0004931054121110907053649494936054667
:100100004949291E05000014000005004034000084
:100110000508142241000514141414140541221476
:100120000800050201590906053E415D594E057C4E
:100130001211127C057F49494936053E4141412251
:10014000057F4141413E057F49494949057F0909EC
:100150000909053E41415173057F0808087F0500E4
:10016000417F4100052040413F01057F08142241A5
:10017000057F40404040057F020C027F057F040858
:10018000107F053E4141413E057F09090906053EB4
:100190004151215E057F0919294605264949493201
:1001A0000501017F0101053F4040403F051F204000
:1001B000201F053F4038403F0563140814630503C2
:1001C0000478040305615149454305007F4141001E
:1001D000050204081020050041417F0005040201CA
:1001E000020405404040404005070B000000052088
:1001F00054547840057F2844443805384444442802
:1002000005384444287F0538545454180500087EA6
:1002100009020518A4A49C78057F08040478050049
:10022000447D4000052040403D00057F10284400EB
:100230000500417F4000057C04780478057C0804B3
:10024000047805384444443805FC1824241805185B
:10025000242418FC057C080404080548545454243C
:100260000504043F4424053C4040207C051C2040FC
:10027000201C053C4030403C054428102844054CD7
:100280009090907C054464544C440500083641002D
:10029000050000770000050041360800050402044F
:1002A000080405007F417F0011241FBECFEFD8E076
:1002B000DEBFCDBF11E0A0E0B1E0E4EEFBE202C0A2
:1002C00005900D92A239B107D9F725E0A2E9B1E076
:1002D00001C01D92A43AB207E1F70E942C120C94BF
:1002E000F0150C9400003C9A3D9A449A459A10925D
:1002F000B9008CE08093B80084E08093BC0008953E
:100300008091B900887F089584EA8093BC00809131
:10031000BC0087FFFCCF8091B900887F089585EDF0
:100320008093BC008091BC0084FDFCCF0895809335
:10033000BB0084E88093BC008091BC0087FFFCCFA9
:100340008091B900887F089584EC8093BC008091EF
:10035000BC0087FFFCCF8091BB00089584E88093A8
:10036000BC008091BC0087FFFCCF8091BB0008954A
:10037000FF920F931F93CF93DF93D82FC62FF42EA6
:10038000152F022F0E948401883069F0803159F0C6
:10039000C0E00E948F018C2F90E0DF91CF911F91E0
:1003A0000F91FF9008958D2F880F0E94970188313B
:1003B00011F0803269F78C2F0E949701883211F07A
:1003C000803331F7CF2DD12F0C0F1D2F111DC017EA
:1003D000D10739F089910E9497018832C1F38033A7
:1003E000B1F3C1E0D6CFCF92DF92EF92FF921F938D
:1003F000CF93DF93C82F162F7A01D22F0E9484014A
:10040000883021F0803111F0C0E03DC08C2F880F82
:100410000E949701883111F08032B1F7812F0E943C
:100420009701883211F0803379F70E948401883077
:1004300011F0803149F78C2F880F81600E9497015D
:10044000877F803409F710E08D2F8150990BEC01E4
:10045000812F90E06701C80ED91E8C179D074CF4C0
:100460000E94A401F60180838091B900807F8035CD
:10047000B1F00E94AE01F60180838091B900807FC7
:10048000C1E0803509F60E948F018C2F90E0DF914A
:10049000CF911F91FF90EF90DF90CF9008951F5F55
:1004A000D7CF880F8093BA0008950E94250480E07A
:1004B0000E942B0481E00C943104809192010895F4
:1004C000EF92FF920F931F93CF93E82E80E00E944C
:1004D000370407E010E0C0E0F12CC701002E02C095
:1004E000959587950A94E2F780FF18C081E00E94F5
:1004F0003D0481E00E943704CC0F0E944304811127
:10050000C16080E00E9437040150110930F78C2F40
:10051000CF911F910F91FF90EF90089580E0E7CF6A
:10052000CF9380E00E94310480E60E94600280E068
:100530000E946002C82F81E00E9431048C2FCF916D
:100540000895CF9380E00E9431048FEF0E946002F3
:10055000C82F81E00E9431048C2FCF9108950E9412
:10056000A102982F907381E009F080E008950E9425
:10057000A10285FD04C084FD04C08FEF089580E0D2
:10058000089581E00895EF92FF920F931F93CF9308
:10059000DF93EC018B017C01E40EF11CCE15DF052D
:1005A00039F4DF91CF911F910F91FF90EF90089553
:1005B00089910E946002F80181938F01EFCF0F9320
:1005C0001F93CF93DF93EC018C01060F111DC01711
:1005D000D10729F4DF91CF911F910F91089589914F
:1005E0000E946002F4CFCF93DF93C82FD62F80E014
:1005F0000E9431048C2F8F7180620E9460028D2FC7
:100600000E94600281E0DF91CF910C943104CF937E
:10061000DF93EC0180E00E94310481E60E946002D9
:1006200040919201BE01CE010E94C30281E00E946E
:10063000310460E487E0DF91CF910C94F30280E015
:100640000E94310482EE0E94600281E00E94310427
:1006500060E787E00E94F30280E00E942B046BE0D9
:1006600080E00E94F30281E00C942B0460939201DD
:10067000682F85E00E94F30260E081E10E94F302AE
:100680006091920182E10E94F30260E083E10E94A6
:10069000F30260E084E10E94F30260E085E10E94E1
:1006A000F30260E086E10E94F30266E086E00E94C9
:1006B000F30268E080E00E94F30263E081E00E94C0
:1006C000F30263E082E00E94F3026FE484E00E94A0
:1006D000F30260E08CE10E94F3020C941F0360E7D8
:1006E00087E00E94F3026AE080E00C94F302CF936B
:1006F000DF93EC0180E00E942B040E946F0380E0F6
:100700000E94310481EE0E94600281E00E94310467
:1007100080E00E94310480EA0E94600260919201B0
:10072000CE010E94DF0281E00E94310481E0DF916E
:10073000CF910C942B0480E00E942B0468E080E0B1
:100740000C94F3020F931F93CF93DF93082FEB01C9
:10075000142F80E00E943104802F8F710E9460026C
:10076000412FBE01CE010E94C30281E0DF91CF91F3
:100770001F910F910C943104CF93DF930F92CDB75B
:10078000DEB741E0BE016F5F7F4F87E10E94A203A9
:10079000898181700F90DF91CF9108950E94A1020D
:1007A00091E086FD05C00E94BC0391E0811190E0BC
:1007B000892F0895CF93DF930F92CDB7DEB741E035
:1007C000BE016F5F7F4F88E00E94A20389818F7016
:1007D0000F90DF91CF9108950F931F93CF93DF93E5
:1007E000C82F8B01D42F80E00E9431048C2F8F7191
:1007F00080620E9460026D2FC8010E94DF0281E0CA
:10080000DF91CF911F910F910C943104CF93DF931F
:10081000EC0180E00E942B0445E0BE018BE00E94C9
:10082000EC0381E0DF91CF910C942B04CF93DF9305
:10083000EC0145E0BC018AE00E94EC0345E0BE010A
:1008400080E1DF91CF910C94EC03219A229A259AB2
:10085000239A24980895882311F0299A08952998B5
:100860000895882311F02A9A08952A9808958823D4
:1008700011F02D9A08952D980895882311F02B9A40
:1008800008952B98089583B180710895EF92FF9297
:100890000F931F93CF93DF93C82F162FE72E042FAC
:1008A0000E9484010E948001883081F0803171F0C3
:1008B00081E090E09093940180939301DF91CF9138
:1008C0001F910F91FF90EF900C948F0188E70E9489
:1008D00097010E948001883111F0803249F78C2FF6
:1008E0000E9497010E948001883211F0803301F745
:1008F000F12EC12FDE2D89910E9497010E94800167
:10090000883211F0803321F48C2F8F19801798F3DF
:100910001092940110929301D1CFCF93DF930F9255
:10092000CDB7DEB7898341E0BE016F5F7F4F80E0C6
:100930000E9446040F90DF91CF910895E3E9F1E022
:100940002381928131E0390F3283269526952695B1
:1009500040E8249F9001112420563E4F290F311D5D
:10096000F9018083089580919301909194010895F5
:10097000CF93DF9381E20E948D0480E00E948D047A
:100980008FE70E948D0482E20E948D0480E00E9425
:100990008D0487E00E948D04C0EAD1E040E1BE01F1
:1009A00080E40E944604609685E0C03AD807B1F71B
:1009B000DF91CF910895811103C08EEA0C948D04CC
:1009C0008FEAFCCFCF93C82F81E80E948D048C2F33
:1009D000CF910C948D0487FF809395010895909199
:1009E0009601903410F4809396010895CF93C62F0A
:1009F0000E94EB048C2FCF910C94EF040E947301A2
:100A00008EEA0E948D0485ED0E948D0480EF0E9485
:100A10008D0488EA0E948D048FE30E948D0483ED8B
:100A20000E948D0480E00E948D048DE80E948D0458
:100A300084E10E948D0480E40E948D0480E20E9483
:100A40008D0480E00E948D0481EA0E948D0488EC70
:100A50000E948D048AED0E948D0482E10E948D0423
:100A600081E80E948D048FEF0E948D0489ED0E9421
:100A70008D0481EF0E948D048BED0E948D0480E235
:100A80000E948D0484EA0E948D0486EA0E948D04EF
:100A90008EE20E948D048FEA0E948D0460E080E067
:100AA0000E94F604E3E9F1E086EA90E0958384830E
:100AB0001286118610861382128208958830B8F447
:100AC000682F660F660F660F80E00E94F604E091C3
:100AD0009601E695E695E69580E8E89FF0011124F9
:100AE000E056FE4F80E011928F5F8038E1F7089565
:100AF000883028F4880F880F880F80939601089516
:100B000080919501089580919601089580919601B4
:100B1000829586958695837008951F93CF93DF9372
:100B2000162FEA010E94F604E0919601E695E695FB
:100B3000E69580E8E89FF001112480919501E80F87
:100B4000F11DE056FE4F2081177081E090E0A0E09B
:100B5000B0E004C0880F991FAA1FBB1F1A95D2F7D7
:100B6000CF3FD10531F4822B8083DF91CF911F914C
:100B7000089580958223F8CFEF92FF921F93CF9331
:100B8000DF93C82FD62F142F7901681710F4C62FC2
:100B9000D82FDC1730F4DF91CF911F91FF90EF90A9
:100BA0000895A701612F8C2F0E948D05CF5FF1CF93
:100BB0006F927F928F929F92AF92BF92CF92DF926D
:100BC000EF92FF920F931F93CF93DF93E82E962E11
:100BD000680187FD77C047FD75C06FE3691508F4AC
:100BE00071C0203408F06EC02F5FF22EF9184F5FED
:100BF000842E881A192D1770092D011BAF2CB12CCA
:100C000088E090E09C01211B3109A216B3060CF08C
:100C100068C08A199B09CFEFD0E002C0D595C7956F
:100C20008A95E2F77F2C012E01C0CC0F0A94EAF7D7
:100C30006C2E602F8E2D0E94F604909195012091CC
:100C4000960126952695269580E8289F90011124E7
:100C5000D0E0C095ED2FE90F8D1248C0E0939501CB
:100C60001919170D212F200F822F90E0AC01495F39
:100C70005F4F4A155B050CF449C02F1518F5A81AEB
:100C8000B90A8FEF90E001C0880FAA94EAF7C82F45
:100C9000C09568E0600F8E2D0E94F604409195018A
:100CA0008091960186958695869520E8829FC00161
:100CB000112430E05C2F5095E32FE40FD31346C08E
:100CC000E0939501DF91CF911F910F91FF90EF90ED
:100CD000DF90CF90BF90AF909F908F907F906F905C
:100CE000089588E0782E711ACFEF9DCFE20FF32F91
:100CF000F11DE056FE4F80814FEFC416D10421F460
:100D000086298083DF5FA6CF8C23FBCF085F602F0F
:100D10008E2D0E94F6043091950180919601869562
:100D20008695869560E8869FC001112420E0805654
:100D30009E4FE22FE30FD21303C0E093950192CFB1
:100D4000E80FF92FF11DC0822F5FF3CFE80FF92FC5
:100D5000F11DE056FE4F20816FEFC616D10421F43D
:100D60002C2B20833F5FA8CF2523FBCF0F931F930E
:100D7000942F681718F4482F862F642F8901262F87
:100D8000492F682F892F0E94D8051F910F91089530
:100D90002F923F924F925F926F927F928F929F928B
:100DA000AF92BF92CF92DF92EF92FF920F931F9379
:100DB000CF93DF9300D000D00F92CDB7DEB77C0188
:100DC000162F2901C0909501D09096018C2D860F89
:100DD00087FF02C010E81C19242F30E0295F3F4F25
:100DE00053E0359527955A95E1F73D832C838D2D5A
:100DF000869586958695820F893030F0F901389670
:100E0000E81BF109FD83EC83FD2DF7702F2EBD2C1F
:100E100000E0612E712C88E090E09C012F1B3109CD
:100E20003B832A83802E912C8C819D818816990684
:100E300008F46EC0029708F44FC06B2D8C2D0E94F1
:100E4000F604909195019983209196012695269517
:100E5000269530E0B9017695762F662777956795C8
:100E6000E1E08E1A9108189DF001199DF00D1124F2
:100E7000EE0DFF1D1A8288E090E07C01E218F10877
:100E800089819A81890F90E04A811413A4C0498115
:100E90004F5F140F60919E0170919F0180569E4F8D
:100EA00040E06115710569F0F901F695FE2FEE2716
:100EB000F795E795E80FF91F40816130710509F05A
:100EC000A0C0109395013695322F2227379527958C
:100ED000820F931FFC0140836D2D809195010F902F
:100EE0000F900F900F900F90DF91CF911F910F9166
:100EF000FF90EF90DF90CF90BF90AF909F908F903A
:100F00007F906F905F904F903F902F900C94F604DD
:100F10006B2D8C2D0E94F604019F90011124B901C4
:100F2000661977098091960186958695869590E059
:100F30004C019694982C882497948794409195011D
:100F400049832E0D3F1DA12C39803A0C1A1118C06F
:100F500030929501DC01B695BA2FAA27B795A795CF
:100F6000A30DB11D80919E0190919F01A056BE4F8F
:100F7000892B79F18C918C9328E0B20E0F5F52CFC0
:100F8000F9014491022C01C0440F0A94EAF7E42FBE
:100F9000002379F0DB011196F701E60FF71FE491CA
:100FA000F0E00A8002C0F595E7950A94E2F7E42B99
:100FB000BD01D401A30DB11DA056BE4FF1E04F16E7
:100FC000510411F44C91E42BEC93A3942F5F3F4F09
:100FD000BBCF80E0D0CF860F971F4491DC01A05695
:100FE000BE4F842F90E00E2C02C0959587950A94F1
:100FF000E2F79C91892B8C934A814F5F4A8331960B
:101000003FCF40955ECF7F928F929F92AF92BF92DB
:10101000CF92DF92EF92FF920F931F93CF93DF93C4
:10102000F82E862FD42FC22FF7FC5AC047FD58C088
:10103000603408F055C0203408F052C0F41212C0D9
:1010400098014F2D6C2FDF91CF911F910F91FF9041
:10105000EF90DF90CF90BF90AF909F908F907F9058
:101060000C94B606621313C09801462F6D2F8F2D76
:10107000DF91CF911F910F91FF90EF90DF90CF9074
:10108000BF90AF909F908F907F900C94BC05C22E24
:10109000D12C262F30E0C61788F5A9014C195D091F
:1010A0006A01AD2EB12C2F2D30E0DF1550F5A901CE
:1010B0004A195B095A014C155D0544F19F2C9D1A94
:1010C000882E8C1AC81710F08C2E881AE92CE694FA
:1010D00077247A94C81710F477247394FD1668F572
:1010E000DF91CF911F910F91FF90EF90DF90CF9004
:1010F000BF90AF909F908F907F900895C21AD30AAF
:10110000D0CFA21AB30AAC14BD044CF4C81770F4C3
:101110009F2DF82E892F9D2FDC2FC92FCFCF9C2FED
:10112000C82F892F9D2FDF2DF92EC8CF9C2FCF2DB3
:10113000F92E9D2FD82F892FC1CFA8016D2F8C2F6D
:10114000AC14BD0414F06C2F8D2F0E948D05E8188F
:10115000E7FE02C0C70DE90CDF5FC0CFEF92FF9240
:101160000F931F93CF93DF93E82EC62FF42ED22F29
:1011700087FD23C047FD21C06034F8F42034E8F433
:101180009801462F6F2D0E94BC0598014D2F6F2DA1
:101190008E2D0E94BC0598014E2D6D2F8C2F0E9424
:1011A000B60698014F2D6D2F8C2FDF91CF911F9197
:1011B0000F91FF90EF900C94B606DF91CF911F91A5
:1011C0000F91FF90EF9008955F926F927F928F92B0
:1011D0009F92AF92BF92CF92DF92EF92FF920F93C6
:1011E0001F93CF93DF93982EC62E142FD22E87FDF8
:1011F00077C047FD75C08FE3861708F471C082176A
:1012000008F46EC0802F90E0880F991FC3E0D0E0F3
:10121000C81BD90BB12EB01AA92CA00E9701462FCE
:101220006B2D8A2D0E94BC0597014D2D6B2D8A2DAB
:101230000E94BC05D01AC00E9701492D6D2D8C2D32
:101240000E94B6069701412F6D2D8C2D0E94B60687
:1012500010E0A7017C2C701A672D8A2C811A882D2A
:101260000E948D05A7019C2C911A692D5A2C501AA9
:10127000852D0E948D05A701672D7B2C710E872D72
:101280000E948D05A701692D9B2C900E892D0E942F
:101290008D05A7016D2C600E662D882D0E948D0591
:1012A000A7018D2C810E682D852D0E948D05A7012B
:1012B000662D872D0E948D05A701682D892D0E941E
:1012C0008D05812F90E0D7FF1BC0880F991F880FD5
:1012D000991F0696C80FD91F1F5F011708F0B9CFD5
:1012E000DF91CF911F910F91FF90EF90DF90CF9002
:1012F000BF90AF909F908F907F906F905F90089578
:10130000801B9109880F991F880F991F0A96C80F93
:10131000D91F0150E1CFAF92BF92CF92DF92EF92EF
:10132000FF920F931F93CF93DF93D82FF62EB42EF7
:10133000A22EC02F87FD1BC047FD19C007FD17C097
:101340008FE38617A0F0821790F08E1580F086014B
:101350008D2F0E9403082E2D4C2F6A2D8B2D0E945D
:1013600003082F2D4D2F6E2D8C2F0E940308DF9127
:10137000CF911F910F91FF90EF90DF90CF90BF9092
:10138000AF9008955F926F927F928F929F92AF92EB
:10139000BF92CF92DF92EF92FF920F931F93CF9362
:1013A000DF93B82EA62EC42F8901842F90E09C01D4
:1013B0002B0D311D203831050CF065C09C01260F26
:1013C000311D203431050CF05EC0880F991F21E0DB
:1013D00030E06901C81AD90A88248394912CF12C31
:1013E000E12CD0E06A2C6D0EA801662D7B2C7C0EC2
:1013F000872D0E948D05A801662D6B2C6C1A862DF9
:101400000E948D055A2C5D1AA801652D862D0E941B
:101410008D05A801652D872D0E948D056B2C6D0E05
:10142000A8017A2C7C0E672D862D0E948D055B2CE1
:101430005D1AA801672D852D0E948D05A8017A2CC3
:101440007C1A672D852D0E948D05A801672D862D9C
:101450000E948D05DF5FE80CF91C22E0820E911CD2
:10146000C701880F991F8C0D9D1D1816190644F48D
:10147000C1509C012E193F09790132E0C30ED11CE5
:10148000CD1708F0AFCFDF91CF911F910F91FF9053
:10149000EF90DF90CF90BF90AF909F908F907F9014
:1014A0006F905F90089590E0E92FE695E695E695B8
:1014B00020E8E29FF0011124E056FE4F20E08193E6
:1014C0002F5F2038E1F7985F903471F7089590E02E
:1014D00080E00C94530A0F931F930E94D8051F912C
:1014E0000F9108954F925F926F927F928F929F9289
:1014F000AF92BF92CF92DF92EF92FF920F931F9322
:10150000CF93DF93862E922EC02F87FD53C047FDC9
:1015100051C09FE3961708F44DC0921708F44AC0D3
:10152000202F30E0220F331F63E070E06B01C21AFE
:10153000D30AB42EB01AA82EA00E8701292D4B2D48
:10154000682D8A2D0E94D805D0E09C1A8C0E870148
:10155000492C4C0E242D8A2D8D1B482F582C5C1A9B
:10156000652D0E940308692C6D0E262D8A2D8C1B7B
:10157000482F782C7D1A672D0E940308242D8B2D6F
:101580008D0F482F652D0E940308262D8B2D8C0F63
:10159000482F672D0E940308ED2FF0E0D7FE1BC0F7
:1015A000EE0FFF1FEE0FFF1F3696CE0EDF1EDF5F22
:1015B000CD1768F6DF91CF911F910F91FF90EF90BB
:1015C000DF90CF90BF90AF909F908F907F906F9063
:1015D0005F904F900895EC1BF109EE0FFF1FEE0F87
:1015E000FF1F3A96CE0EDF1EC150E1CF2F923F92E1
:1015F0004F925F926F927F928F929F92AF92BF9223
:10160000CF92DF92EF92FF920F931F93CF93DF93CE
:10161000CDB7DEB76B970FB6F894DEBF0FBECDBF68
:10162000662E722EE982DD86CC8687FDBDC047FD21
:10163000BBC007FDB9C02FE3261708F4B5C02715B6
:1016400008F4B2C03E2D303408F0AEC0E71430F4D8
:10165000972D7E2C9983942F402F092F761430F4E8
:10166000962D672C792E982F842F492F482E512C98
:10167000842F90E099878887C62CD12CE72CF12CF9
:10168000B201681B790B072E000C880B990B0E9486
:10169000A3134B015C01B6016E197F09072E000CE4
:1016A000880B990B0E94A3139B01AC01C501B401E7
:1016B0000E94F9126E877F87888B998BA02FB0E0EC
:1016C000BB83AA83B9812B2E312C970122193309B0
:1016D0003F832E83688579858A819B81681B790B7E
:1016E000072E000C880B990B0E94A3134B015C0181
:1016F000AE81BF81BD01BB0F880B990B0E94A31364
:101700009B01AC01C501B4010E94F9126A8B7B8B6D
:101710008C8B9D8B6A817B8164197509072E000C67
:10172000880B990B0E94A3134B015C01B1016C194A
:101730007D09072E000C880B990B0E94A3139B01B7
:10174000AC01C501B4010E94F912688779878A87C4
:101750009B87312C212CC201052C000CAA0BBB0B42
:101760008E8B9F8BA88FB98FA62DA20DAB8F7A166B
:10177000A0F5EE80FF808A819B81092E000CAA0BC8
:10178000BB0B8A839B83AC83BD83A981A619BB0B4A
:101790006D01052C000C6608770829812E0D2E8717
:1017A0003981321708F058C06B960FB6F894DEBF37
:1017B0000FBECDBFDF91CF911F910F91FF90EF90A2
:1017C000DF90CF90BF90AF909F908F907F906F9061
:1017D0005F904F903F902F900895B101032C000C23
:1017E000880B990B0E94A3134B015C016E897F89C2
:1017F000888D998D0E94A3136B017C012E853F85F6
:1018000048895989C501B4010E945814A70196015D
:101810000E9488120E9472136A8F062F28853985CC
:101820004A855B85C501B4010E945814A701960141
:101830000E9488120E947213462F601710F46A8F5C
:10184000402F0C851D852B8D622F8A8D0E940308E9
:101850009FEF291A390A88CFB7010F2C000C880B8B
:10186000990B0E94A3132A893B894C895D890E94A8
:1018700058144B015C016A817B818C819D810E949F
:10188000A3139B01AC01C501B4010E9488120E9400
:1018900072136E83062FB6016E0D7F1D072E000C8E
:1018A000880B990B0E94A313288539854A855B858F
:1018B0000E9458144B015C01C301B2010E94A313A2
:1018C0009B01AC01C501B4010E9488120E947213F1
:1018D000462F601710F46E83402F0C851D852E85D2
:1018E000622F8E810E940308BFEFEB1AFB0A55CFCF
:1018F000AF92BF92CF92DF92EF92FF920F931F931E
:10190000CF93DF93E82ED62EC42F5901842F90E079
:101910009C012E0D311D20383105B4F4860F911D28
:10192000803491058CF481E0F82EF41AC42EC19411
:10193000CC0C8501242F260F4E2D6C1B8E2D0E9462
:101940000308D0E0DC1758F0DF91CF911F910F9181
:10195000FF90EF90DF90CF90BF90AF900895F7FC8D
:1019600004C0C150C394C394FC0CDF5F8D2F880F5B
:101970008F5FF80E4E2D4D0F95010D2D0C1B602F16
:101980001C2F1D0D812F0E94B6064E2D4D1B95015B
:10199000602F812F0E94B6060D2D0D1B1D2D1D0FD2
:1019A00095014C2F4E0D602F812F0E94B606950198
:1019B0004E2D4C1B602F812F0E94B606C3CFCF93B4
:1019C000DF93D82FC62F87E20E948D0480E00E940B
:1019D0008D048D2F0E948D0480E00E948D048C2F39
:1019E0000E948D0480E00E948D048FEF0E948D0480
:1019F0008FE2DF91CF910C948D04CF93DF93D82F9A
:101A0000C62F86E20E948D0480E00E948D048D2FF7
:101A10000E948D0480E00E948D048C2F0E948D0412
:101A200080E00E948D048FEF0E948D048FE2DF9191
:101A3000CF910C948D04CF93DF93D82FC62F83EAD8
:101A40000E948D0480E00E948D0480E40E948D0439
:101A50008AE20E948D0480E00E948D048D2F0E94F6
:101A60008D0480E00E948D048C2F0E948D0481E003
:101A70000E948D048FE2DF91CF910C948D04CF935F
:101A8000DF93D82FC62F83EA0E948D0480E00E9446
:101A90008D0480E40E948D0489E20E948D0480E020
:101AA0000E948D048D2F0E948D0480E00E948D0481
:101AB0008C2F0E948D0481E00E948D048FE2DF91C3
:101AC000CF910C948D048EE20C948D04809197013B
:101AD00090919801873A910551F486EA90E09093AD
:101AE000980180939701809197010C948D0487EA67
:101AF00090E0F5CF9F92AF92BF92CF92DF92EF929C
:101B0000FF920F931F93CF93DF93C82EB62ED42F3F
:101B1000D81BDD24D394DD0E261B01E0020FC62F57
:101B2000C770162F1C1BE02EF12C88E090E09C0162
:101B30002C1B3109E216F3060CF065C09C012E192E
:101B40003F098FEF90E002C0959587952A95E2F7BF
:101B5000902EA82E0C2E01C0AA0C0A94EAF7612F31
:101B60008C2D0E94F6048091950120919601269576
:101B70002695269590E8299F9001112490E0E92F61
:101B8000E80F9D1508F444C08F5F8D0F8093950179
:101B9000CB19C90D2C2F210F822F90E0AC01495F8A
:101BA0005F4F4E155F05F4F1201708F5E81AF90AA2
:101BB000CFEF01C0CC0FEA94EAF768E0610F8C2DFB
:101BC0000E94F60440919501809196018695869534
:101BD000869520E8829FC001112430E0E32FE40FB6
:101BE0003D1508F443C04F5FD40FD0939501DF91AA
:101BF000CF911F910F91FF90EF90DF90CF90BF900A
:101C0000AF909F90089588E0982E9C1A8FEFA1CFF7
:101C1000E20FF32FF11DE056FE4F40814A2540832D
:101C20009F5FADCF185F612F8C2D0E94F6048091CD
:101C300095012091960126952695269590E8299F55
:101C40009001112490E0E92FE80F9D1528F08F5F97
:101C50008D0F809395019ECFE20FF32FF11DE0567B
:101C6000FE4F4081409540839F5FEDCFE80FF92FF5
:101C7000F11DE056FE4F20812C27209520833F5FE9
:101C8000ADCF67FD1EC04034E0F422303105C8F40A
:101C900090939A018093990160939B0140939C01DA
:101CA00050E0CA01019797FD079643E09595879507
:101CB0004A95E1F78F5F80939D0130939F012093B8
:101CC0009E010895A3E9B1E018962C9118971A96F1
:101CD0009C911A97299F900111242F5F3F4F082E46
:101CE000000C990B8097289FA001299F500D389FC9
:101CF000500D11241696ED91FC91E40FF51F84917F
:101D00008F5F08950F931F93CF93DF938C01D0E0E3
:101D1000C0E0F80181918F01811106C0CE01DF91F1
:101D2000CF911F910F9108950E94620EC80FD11D8F
:101D3000F0CF0F931F93CF93DF93EC01FC018491BD
:101D400010E000E02196811106C0C801DF91CF911B
:101D50001F910F9108950E94620E080F111DFE0140
:101D60008491F0CF2F923F924F925F926F927F9229
:101D70008F929F92AF92BF92CF92DF92EF92FF929B
:101D80000F931F93CF93DF9300D000D000D0CDB737
:101D9000DEB71091950100919601805220919B0130
:101DA00090919D01299F900111242F5F3F4F482F53
:101DB00042037001439FF00C1124C70101969A83DE
:101DC0008983E0919901F0919A01EE0DFF1D249015
:101DD000902F9770C92ED02E1D8288E090E0FC01D4
:101DE000EC19F109FC83EB8380919D01ED81E817EB
:101DF00008F469C080919C018295869586958370D0
:101E0000800F9927991F202F2295269526952370BC
:101E100028171906D1F16D2D812F0E94F604D0905C
:101E200095018091960186958695869590E0AC0106
:101E30005695542F44275795479520919D0130E0A2
:101E4000FD81EF0EF11CE0919901F0919A01EE0EE7
:101E5000FF1EB12C68E070E06C197109AB2DAD0D5F
:101E6000B21096C0A093950120919E0130919F01E0
:101E7000232B59F49695982F882797958795805608
:101E80009E4FA80FB92FB11D1C9281E0810F602FCA
:101E9000820D26960FB6F894DEBF0FBECDBFDF9140
:101EA000CF911F910F91FF90EF90DF90CF90BF9057
:101EB000AF909F908F907F906F905F904F903F90EA
:101EC0002F900C94F6046D2D812F0E94F604298129
:101ED0003A81FD812F0F311DB90161507109A09127
:101EE0009901B0919A0180919D0190E0A0909E018E
:101EF000B0909F01509095017090960176947694E1
:101F0000769440E8749E400111242A0F3B1F612CF7
:101F1000362C350C621013C030929501AB2849F471
:101F200060E8769EF0011124E056FE4FE30DF11DAE
:101F3000108288E0D80E9D819F5F9D8355CFF90167
:101F400044910C2C01C0440F0A94EAF7442EFD8101
:101F5000FF2371F0FD01E60FF71FE491F0E00B8025
:101F600002C0F595E7950A94E2F74E2A680F791FAB
:101F7000F401E30DF11DE056FE4F41E0A416B1045B
:101F800011F44081442A40826394280F391FC0CF46
:101F9000A40FB52FB11DF701C490A056BE4FEC2D74
:101FA000F0E0062E02C0F595E7950A94E2F7FC9161
:101FB000EF2BEC93B394E20EF31E50CFCF93DF934D
:101FC000EC018991811103C0DF91CF910895209197
:101FD000950190919B01290F3327331F203831053C
:101FE0009CF70E94B20EEDCFCF93DF93EC01FE0180
:101FF0008491811103C0DF91CF91089521962091A2
:10200000950190919B01290F3327331F203831050B
:1020100094F70E94B20EEBCFCF92DF92EF92FF9235
:10202000CF93DF93CDB7DEB72C970FB6F894DEBF12
:102030000FBECDBF611571058105910581F480E367
:102040000E94B20E2C960FB6F894DEBF0FBECDBF25
:10205000DF91CF91FF90EF90DF90CF9008956115C1
:102060007105810520E8920769F31C861B8620E331
:10207000298330E097FF08C0909580957095619511
:102080007F4F8F4F9F4F31E020E361305AEC75074F
:102090005AE985075BE39507B4F06B017C01EAEC34
:1020A000DE1AEAE9EE0AEBE3FE0AF1E0CF16FAECFB
:1020B000DF06FAE9EF06FBE3FF060CF499C074595A
:1020C0008543974722E32A8320E3422F2F5F611540
:1020D00051EE750755EF850755E095070CF08CC05C
:1020E0004B8320E3422F2F5F6038E6E97E07E8E963
:1020F0008E0791050CF084C04C8320E3422F2F5FA4
:102100006034F2E47F07FFE08F0791050CF07DC09B
:102110004D8320E3422F2F5F603A56E8750751E068
:10212000850791050CF076C04E8320E3422F2F5F88
:102130006031E7E27E07810591050CF070C04F83A6
:1021400020E3422F2F5F683EF3E07F078105910572
:102150000CF06AC0488720E3422F2F5F6436710578
:10216000810591050CF065C0498720E3422F2F5F60
:102170006A307105810591050CF060C04A87605D89
:102180006B8790E081E0890FE1E0F0E0EC0FFD1F4C
:10219000E80FF11D2081203309F455C0332349F0A5
:1021A000E1E0F0E0EC0FFD1FE90FF11D8DE280830F
:1021B000892F2AE0281B60E090E0A1E0B0E0AC0F9E
:1021C000BD1FA60FB11DAD01480F591FFA01308187
:1021D0003C936F5F261788F7E1E0F0E0EC0FFD1FFE
:1021E000E60FF11D1082CE0101960E94DE0F2ACF6C
:1021F000C701B60121E367CF715E854F954065CF7A
:1022000060587649884991096DCF605472448F4077
:10221000910974CF605A7648814091097BCF605113
:1022200077428109910982CF685E734081099109E3
:1022300088CF64567109810991098ECF6A5071095E
:102240008109910993CF982F9DCF8F929F92AF9242
:10225000BF92CF92DF92EF92FF926B017C01490116
:102260005A0120E030E0A9010E94F412811111C04E
:1022700080E30E94B20E8EE20E94B20E80E3FF90D5
:10228000EF90DF90CF90BF90AF909F908F900C9485
:10229000B20E20E030E040E05FECC701B6010E94E2
:1022A000531487FD47C020E030E040E05FE4C70101
:1022B000B6010E94F41287FF3DC020E030E0A90182
:1022C000C701B6010E94F41287FF07C0F7FAF09425
:1022D000F7F8F0948DE20E94B20EC701B6010E9499
:1022E0006B130E940C108EE20E94B20EC701B60161
:1022F0000E9472130E94A1139B01AC01C701B60199
:102300000E9487126B017C01C501B4010E94A113D8
:102310009B01AC01C701B6010E9458140E946B13C7
:10232000FF90EF90DF90CF90BF90AF909F908F90F5
:102330000C940C10FF90EF90DF90CF90BF90AF9077
:102340009F908F9008959FE9980F9A3108F48052DA
:10235000815425E0829FC00111248A5F9E4F089519
:102360005F926F927F928F929F92AF92BF92CF9225
:10237000DF92EF92FF920F931F93CF93DF93942EF0
:102380006C01C0E010E09AE0892E27E0722E37E061
:10239000E32EE60EF60181916F01811110C0DF91ED
:1023A000CF911F910F91FF90EF90DF90CF90BF9052
:1023B000AF909F908F907F906F905F9008958A303C
:1023C00019F4CF5FF12C35C0FF24F394F10E803265
:1023D00081F10E94A311D92DC89DD00D11245E2C2E
:1023E000179D500C11245C0185E0682E6D0E10E0E5
:1023F00000E0F501808190E0002E02C09595879560
:102400000A94E2F780FF07C04FEF50E06D2F852D53
:10241000801B0E948D050F5F1F4F0830110549F783
:10242000DF5FFFEFAF1ABF0A6D12E1CF82E1F8164E
:1024300041F21F2DAFCFAC0190E0E92FF0E0DA01BF
:10244000AE0FBF1F2C91E60FF71F211102C01082A3
:10245000089520839F5FF1CFCDB7DEB7AA970FB65F
:10246000F894DEBF0FBECDBF0E94FE0430E020E036
:1024700048E065E088E690E00E94410E60E080E080
:102480000E94F60480E290E00E94C5148C0185E071
:10249000E8E8F1E0DE01969601900D928A95E1F769
:1024A00085E0EDE8F1E0DE01919601900D928A95CC
:1024B000E1F70E94550260E282E00E943603CE01FD
:1024C00086960E941604CE0181960E9406040E9400
:1024D000CE038823E1F3CE0101960E9407030E94F8
:1024E000670AB801CE0101960E941B1240E060E02D
:1024F000C8010E94B0110E94B8042FEF8BE792E947
:10250000215080409040E1F700C00000E0CF5058DB
:10251000BB27AA270E949F120C9419140E940B1427
:1025200038F00E94121420F039F49F3F19F426F479
:102530000C9408140EF4E095E7FB0C940214E92FB8
:102540000E942A1458F3BA17620773078407950785
:1025500020F079F4A6F50C944C140EF4E0950B2EB3
:10256000BA2FA02D0B01B90190010C01CA01A001E5
:102570001124FF27591B99F0593F50F4503E68F140
:102580001A16F040A22F232F342F4427585FF3CF81
:10259000469537952795A795F0405395C9F77EF452
:1025A0001F16BA0B620B730B840BBAF09150A1F09B
:1025B000FF0FBB1F661F771F881FC2F70EC0BA0F21
:1025C000621F731F841F48F4879577956795B795A9
:1025D000F7959E3F08F0B0CF9395880F08F09927A4
:1025E000EE0F9795879508950E94DE1308F481E019
:1025F00008950E940D130C9419140E94121458F09F
:102600000E940B1440F029F45F3F29F00C9402144F
:1026100051110C944D140C9408140E942A1468F360
:102620009923B1F3552391F3951B550BBB27AA278B
:1026300062177307840738F09F5F5F4F220F331FC5
:10264000441FAA1FA9F335D00E2E3AF0E0E832D08D
:1026500091505040E695001CCAF72BD0FE2F29D090
:10266000660F771F881FBB1F261737074807AB0762
:10267000B0E809F0BB0B802DBF01FF2793585F4FD7
:102680003AF09E3F510578F00C9402140C944D14CE
:102690005F3FE4F3983ED4F3869577956795B795B9
:1026A000F7959F5FC9F7880F911D9695879597F9C4
:1026B0000895E1E0660F771F881FBB1F621773073D
:1026C0008407BA0720F0621B730B840BBA0BEE1F52
:1026D00088F7E09508950E9472136894B1110C94E4
:1026E0004D1408950E94321488F09F5798F0B92F26
:1026F0009927B751B0F0E1F0660F771F881F991F37
:102700001AF0BA95C9F714C0B13091F00E944C1478
:10271000B1E008950C944C14672F782F8827B85F88
:1027200039F0B93FCCF3869577956795B395D9F78E
:102730003EF490958095709561957F4F8F4F9F4F98
:102740000895E89409C097FB3EF4909580957095A4
:1027500061957F4F8F4F9F4F9923A9F0F92F96E9ED
:10276000BB279395F695879577956795B795F11162
:10277000F8CFFAF4BB0F11F460FF1BC06F5F7F4FFF
:102780008F4F9F4F16C0882311F096E911C0772311
:1027900021F09EE8872F762F05C0662371F096E81A
:1027A000862F70E060E02AF09A95660F771F881FE9
:1027B000DAF7880F9695879597F90895990F00088D
:1027C000550FAA0BE0E8FEEF16161706E807F90703
:1027D000C0F012161306E407F50798F0621B730B9E
:1027E000840B950B39F40A2661F0232B242B252B1F
:1027F00021F408950A2609F4A140A6958FEF811DC2
:10280000811D089597F99F6780E870E060E0089562
:102810009FEF80EC089500240A94161617061806F8
:102820000906089500240A941216130614060506D4
:102830000895092E0394000C11F4882352F0BB0F65
:1028400040F4BF2B11F460FF04C06F5F7F4F8F4FC8
:102850009F4F089557FD9058440F551F59F05F3F03
:1028600071F04795880F97FB991F61F09F3F79F0B2
:1028700087950895121613061406551FF2CF469534
:10288000F1DF08C0161617061806991FF1CF8695B6
:102890007105610508940895E894BB27662777279A
:1028A000CB0197F908950E94DE1308F48FEF089585
:1028B0000E946B140C9419140E940B1438F00E949F
:1028C000121420F0952311F00C9402140C940814A7
:1028D00011240C944D140E942A1470F3959FC1F397
:1028E000950F50E0551F629FF001729FBB27F00DBE
:1028F000B11D639FAA27F00DB11DAA1F649F662713
:10290000B00DA11D661F829F2227B00DA11D621F61
:10291000739FB00DA11D621F839FA00D611D221F1B
:10292000749F3327A00D611D231F849F600D211DFF
:10293000822F762F6A2F11249F5750409AF0F1F082
:1029400088234AF0EE0FFF1FBB1F661F771F881FEB
:1029500091505040A9F79E3F510580F00C9402140D
:102960000C944D145F3FE4F3983ED4F3869577952D
:102970006795B795F795E7959F5FC1F7FE2B880F91
:10298000911D9695879597F908950F931F93CF936F
:10299000DF938230910510F482E090E0E091A2058F
:1029A000F091A30530E020E0B0E0A0E0309799F48A
:1029B0002115310509F447C0281B390B2430310596
:1029C000C0F58A819B816115710571F1FB019383CB
:1029D0008283FE0111C04081518102811381481719
:1029E0005907F8F04817590799F4109761F01296B3
:1029F0000C93129713961C933296CF01DF91CF91CF
:102A00001F910F9108950093A2051093A305F4CF91
:102A10002115310519F04217530718F49A01BD0129
:102A2000EF01DF01F801C2CF9093A3058093A205C7
:102A3000D0CFFE01E20FF31F819391932250310911
:102A400039832883DACF2091A0053091A105232B6B
:102A500041F420910201309103013093A1052093AC
:102A6000A00520910001309101012115310541F4AB
:102A70002DB73EB74091040150910501241B350B41
:102A80004091A0055091A1054217530708F0B5CF1A
:102A9000241B350B2817390708F4AFCFBC016E5F34
:102AA0007F4F2617370708F4A8CF640F751F709360
:102AB000A1056093A005FA01819391939ECFCF93D6
:102AC000DF930097E9F0FC01329713821282C091E4
:102AD000A205D091A305DE0130E020E02097A1F40B
:102AE00020813181820F931F2091A0053091A10593
:102AF0002817390709F067C0F093A105E093A005F6
:102B0000DF91CF910895DA01AE17BF0708F040C0FA
:102B100012964D915C9113979D014115510599F7BE
:102B2000D9011396FC93EE9312974D915D91A40FEA
:102B3000B51FEA17FB0779F4808191810296840F13
:102B4000951FD90111969C938E9382819381139640
:102B50009C938E931297B0E0A0E08A819B810097AE
:102B6000B9F5FE0181919191E80FF91F8091A005BF
:102B70009091A1058E179F0719F6109761F5109295
:102B8000A3051092A205D093A105C093A005B8CFCC
:102B9000B383A28340815181840F951FA817B90781
:102BA00071F44E5F5F4F8D919C911197480F591FA3
:102BB0005183408312968D919C919383828321153A
:102BC000310509F0ADCFF093A305E093A20598CFAE
:102BD000DE01EC01C2CF13961C921E921297D3CF46
:042BE000F894FFCF97
:102BE4000000A40520003048487848785870587888
:102BF4003840404038704848487078407840787889
:102C04004070404038405848304848784848303050
:102C14003030300808484830485060504840404000
:102C24004078446C54444448685848487848484874
:102C34007878487840407848487808784878504808
:102C4400384030087078202020204848484878448C
:102C540044442810444454543044281028444848D8
:102C64007810107C0810207CD7D7D7D7D7E7E7E7B0
:022C7400E7E790
:00000001FF
