:100000000C943A000C9457000C9457000C94570031
:100010000C9457000C9457000C9457000C94570004
:100020000C9457000C9457000C9457000C945700F4
:100030000C9457000C9457000C9457000C945700E4
:100040000C9457000C9457000C9457000C945700D4
:100050000C9457000C9457000C9457000C945700C4
:100060000C9457000C9457006364696E6F7073753D
:1000700078585B0011241FBECFEFD8E0DEBFCDBFA4
:1000800011E0A0E0B1E0E8E8FFE002C005900D92C9
:10009000A435B107D9F721E0A4E5B1E001C01D9274
:1000A000AE35B207E1F70E9480000C94C2070C94B1
:1000B00000001092C50087E68093C400E0ECF0E0F9
:1000C00080818D7F808386E08093C20088E1809369
:1000D000C1000895CF93C82F8A3019F48DE00E9493
:1000E0006A008091C00085FFFCCFC093C600CF910D
:1000F00008958091C00087FFFCCF8091C6000895CD
:100100000E9459008EE091E090935B0180935A0128
:1001100080E091E0909359018093580184E690E04B
:100120000E94BC00EC0180E3C82E81E0D82E96E34B
:10013000E92E91E0F92E06E411E082E291E00E94BE
:10014000FD01DF93CF93DF92CF920E942902DF93CC
:10015000CF93FF92EF920E942902DF93CF931F93D8
:100160000F930E94E7018DB79EB70C960FB6F894D7
:100170009EBF0FBE8DBFE1CF0F931F93CF93DF9331
:100180008230910510F482E090E0E0915601F09108
:10019000570130E020E0B0E0A0E0309799F421155D
:1001A000310509F447C0281B390B24303105C0F54F
:1001B0008A819B816115710571F1FB0193838283B3
:1001C000FE0111C0408151810281138148175907F6
:1001D000F8F04817590799F4109761F012960C93AC
:1001E000129713961C933296CF01DF91CF911F91F6
:1001F0000F9108950093560110935701F4CF2115E4
:10020000310519F04217530718F49A01BD01EF01A7
:10021000DF01F801C2CF9093570180935601D0CFF0
:10022000FE01E20FF31F819391932250310939832C
:100230002883DACF2091540130915501232B41F4CA
:1002400020911E0130911F013093550120935401DC
:1002500020911C0130911D012115310541F42DB76C
:100260003EB74091200150912101241B350B409154
:100270005401509155014217530708F0B5CF241B84
:10028000350B2817390708F4AFCFBC016E5F7F4FDD
:100290002617370708F4A8CF640F751F7093550110
:1002A00060935401FA01819391939ECFCF93DF9392
:1002B0000097E9F0FC01329713821282C091560137
:1002C000D0915701DE0130E020E02097A1F4208199
:1002D0003181820F931F20915401309155012817CD
:1002E000390709F067C0F0935501E0935401DF919D
:1002F000CF910895DA01AE17BF0708F040C01296FB
:100300004D915C9113979D014115510599F7D901C4
:100310001396FC93EE9312974D915D91A40FB51F28
:10032000EA17FB0779F4808191810296840F951F6B
:10033000D90111969C938E938281938113969C93FD
:100340008E931297B0E0A0E08A819B810097B9F567
:10035000FE0181919191E80FF91F809154019091D4
:1003600055018E179F0719F6109761F510925701E6
:1003700010925601D0935501C0935401B8CFB38366
:10038000A28340815181840F951FA817B90771F48A
:100390004E5F5F4F8D919C911197480F591F51836C
:1003A000408312968D919C91938382832115310510
:1003B00009F0ADCFF0935701E093560198CFDE01DD
:1003C000EC01C2CF13961C921E921297D3CFB0E0CD
:1003D000A0E0EDEEF1E00C949B07AE014B5F5F4FA8
:1003E000FA0161917191AF0180915A0190915B0185
:1003F0000E943F02E2E00C94B7070F931F93CF9344
:10040000DF93E0915A01F0915B01238110E000E05D
:1004100021FD0EC00FEF1FEFC801DF91CF911F919B
:100420000F9108950995892B11F00FEF1FEFCE0161
:10043000EC01899160915A0170915B01DB01189682
:10044000ED91FC918111EECF8AE00995892B21F382
:10045000E1CFB0E0A0E0EFE2F2E00C949B07AE0148
:100460004B5F5F4FFA0161917191AF01809158012B
:10047000909159010E947C05E2E00C94B707ABE033
:10048000B0E0E5E4F2E00C948B077C013B018A01CB
:10049000FC0117821682838181FFB9C19AE0292E5F
:1004A000CE0101965C01F7019381F30193FD8591E3
:1004B00093FF81913F01882309F446C1853239F4C5
:1004C00093FD859193FF81913F01853229F4B70116
:1004D00090E00E94E206E7CF912C412C512CFFE1E5
:1004E000F51538F08B3209F188F4803201F183324E
:1004F00021F157FC3AC020ED280F2A3040F556FE76
:100500001FC0929C200D1124922E06C08D3291F0B6
:10051000803379F7689450F8F30193FD859193FF48
:1005200081913F018111DBCF20C0689451F868941C
:1005300052F8F2CF689453F8EFCF689454F8ECCFA8
:10054000429C200D1124422E689455F8E5CF8E323E
:1005500029F456FCF9C0689456F8DECF8C3619F4AD
:10056000689457F8D9CF8836B9F2982F9F7D955463
:100570009330C0F08336A1F18337C1F1833509F0A0
:100580005BC0F801C190D1908F01692D70E056FCDD
:1005900002C06FEF7FEFC6010E9492064C01689483
:1005A00057F80AC00C5F1F4F2FE3298388248394D8
:1005B000912C6501E89457F853FC04C048141904C1
:1005C00009F018F5342C8114910431F5332009F425
:1005D0006ACFB70180E290E00E94E2063A94F6CF3B
:1005E000F801808189830E5F1F4FE0CFF801C19031
:1005F000D1908F01692D70E056FC02C06FEF7FEF44
:10060000C6010E949D064C01D5CFB70180E290E063
:100610000E94E2064A94D2CFF60157FC859157FE1C
:1006200081916F01B70190E00E94E20631103A9487
:10063000F1E08F1A9108C7CF843619F0893609F096
:1006400074C0F80157FE6AC06191719181919191D6
:100650008F01252D2F76D22E97FF09C0909580957A
:10066000709561957F4F8F4F9F4F6894D7F82AE020
:1006700030E0A5010E942A07C82ECA188C2C5D2CD8
:10068000D6FE0CC0E89450F8C91440F4D4FE05C05E
:10069000D2FC03C0FD2DFE7E5F2E892C54FE8FC040
:1006A000FE01EC0DF11D8081803309F081C0252D04
:1006B000297E522E852D8870382E53FC8FC050FE17
:1006C00089C09C2C841418F44C0C942C981854FE5B
:1006D0008BC0B70180E390E00E94E20652FE09C0A1
:1006E00088E790E051FE02C088E590E0B7010E94E3
:1006F000E206C91408F484C0CA94D12C9FEFC91A29
:10070000D90ACA0CDB1CF60182916F01B70190E097
:100710000E94E206AC14BD04B1F758CF619171910B
:10072000072E000C880B990B93CFD52CE894D4F8A6
:100730002AE030E0853739F1952D997FD92E8F3613
:1007400001F148F48835A9F0F701868197812B964D
:10075000E2E10C94A707803749F08837A9F7D4FE67
:1007600002C06894D2F820E130E00DC06894D4F85B
:10077000F6CF54FE03C0E92FE660DE2E20E132E022
:1007800002C028E030E0F801D7FE0DC06191719100
:10079000819191918F01A5010E942A07C82ECA1844
:1007A000E894D7F86BCF6191719190E080E0F2CF3F
:1007B00052FC02C083947ECF839483947BCF852D9B
:1007C000867809F477CFF6CFB70180E290E00E94F7
:1007D000E20683948414C0F3312C79CF342C38187A
:1007E000841408F474CFF8CF852D867809F481CF6E
:1007F0008BE251FE80E257FC8DE2B70190E077CFAB
:10080000B70180E390E00E94E2069A9472CF8FEFE6
:100810009FEF9DCF20FD09C0FC0123FD05C022FFF5
:1008200002C07383628351834083089533E044FDA3
:1008300010C034E046FD0DC0DB01FC01AA0FBB1F58
:10084000EE1FFF1F1094D1F76A0F7B1F8E1F9F1F93
:1008500031E0660F771F881F991F3150D1F7620F63
:10086000711D811D911D08950F931F93CF93DF93E9
:100870008C01C8010E94A806EC0197FD08C00E94E7
:100880007E06892BB1F7B801CE010E941207CE0176
:10089000DF91CF911F910F9108958F929F92AF9208
:1008A000BF92EF92FF920F931F93CF93DF938C0130
:1008B000D62F7A01B22E0E94A8069C0133272B3234
:1008C000310529F02D323105A9F46894B7F8D150DB
:1008D00061F480E0DF91CF911F910F91FF90EF9035
:1008E000BF90AF909F908F900895C8010E94A80676
:1008F00097FDEFCFCB2DCD7F2B2D2073F9F48033D7
:10090000E9F4AA24AA94AD0E89F0C8010E94A806B1
:1009100097FD0CC0282F2F7D283561F4C264D2507A
:1009200029F0C8010E94A80697FF08C0812C912CCD
:1009300054011BC0B6FE2BC0C260DA2D812C912C55
:10094000540120ED280F283028F1C4FD09C02A30B9
:1009500008F1C6FF05C02F7D3FEE320F3630C8F0DC
:10096000B8010E941207C1FFB4CFC7FF08C0B094FE
:10097000A09490948094811C911CA11CB11C2C2FDC
:10098000B501A401C7010E940A0481E0A3CFC2619E
:10099000D4CF27504C2FC501B4010E9416044B013F
:1009A0005C01C260D15009F3C8010E94A80697FFFC
:1009B000C8CFDBCFA0E2B0E0E0EEF4E00C9491070A
:1009C0005C01962E7A01CE0101966C0180E2F6015F
:1009D00011928A95E9F7F5018380890150E040E0A2
:1009E000B0E020E0A0E061E070E0F80183FC9591C8
:1009F00083FE9191892F8F01911107C010E000E0D3
:100A0000C801A096ECE00C94AD079E3519F4411591
:100A1000510531F1A4171506ECF49D3549F19D32CD
:100A2000C9F4222309F1E82FE695E695E695EC0D49
:100A3000FD2DF11D982F97709B0101C0220F9A95F3
:100A4000EAF79081292B20838B1781F08B1730F4E4
:100A50008F5FE9CF2111E7CFB92FE5CF8150E3CFE9
:100A6000A1E04F5F5F4FC1CF21E0FBCF20E0F9CF86
:100A7000222319F08E8180628E83AA2361F0F60111
:100A80009E012F5D3F4FDF018D9180958083FD0199
:100A9000A217B307C1F788248394C5010E94A80652
:100AA00097FD16C0E82FE695E695E695EC0DFD2D31
:100AB000F11D208130E0AC014770552702C035950B
:100AC00027954A95E2F720FD06C0B5010E9412075E
:100AD000882059F093CFE114F10419F0F7018193C4
:100AE0007F019A94812C9110D8CFE114F10409F47C
:100AF00087CFF701108284CFB0E0A0E0E2E8F5E014
:100B00000C948F075C01EB01742E652EFC0117829B
:100B10001682C12CF501F380FE01F3FC8591F3FEF2
:100B20008191182FEF018823E9F090E00E947E0662
:100B3000892B21F0C5010E943404ECCF153241F419
:100B4000FE01F3FC1591F3FE1191EF01153269F4EA
:100B5000C5010E94A80697FD8CC01817D9F2B501EF
:100B60000E9412078C2D90E088C000E01A3231F408
:100B7000F3FC1591F3FE1191EF0101E0D12C20ED72
:100B8000210F2A3048F101FF37C0DD2059F3183614
:100B9000B1F11C3609F43DC0112321F3612F70E03F
:100BA00088E690E00E948706892BE1F2F12CE12C87
:100BB00000FD06C0E72DF62DE190F1907E2E6F2E00
:100BC0001E3679F5F5014681578170E060E0202FEF
:100BD000C7010E940A049ECF02606D2D70E090E074
:100BE00080E040E20E941604D62EFE01F3FC15912F
:100BF000F3FE1191EF01C3CFDD24DA94C8CFFE01DB
:100C0000F3FC1591F3FE1191EF01183609F0C4CFF2
:100C100008600460FE01F3FC1591F3FE1191EF01F1
:100C2000BBCF1336B1F401FD02C0DD24D394C5015E
:100C30000E94A80697FD1DC0E114F10419F0F70108
:100C400081937F01DA94D110F2CF00FD63CFC3947A
:100C500061CF1B35B9F49E01A7016D2DC5010E941E
:100C6000DA04EC01892B89F7F5018381807309F49B
:100C700079CF8FEF9FEFC11075CFCDB7DEB7EEE024
:100C80000C94AB07C5010E94340497FDF2CF1F36C8
:100C900099F130F4143641F0193639F0006405C08A
:100CA0001337A9F01537D1F70062202FA7016D2D5A
:100CB000C5010E944D048111C8CFD6CFE114F104C3
:100CC00019F0F70181927F01DA94DD2071F0C501FE
:100CD0000E94A8064C0197FD08C00E947E06892B41
:100CE00069F3B501C4010E941207E114F10409F48B
:100CF000ACCFF7011082A9CF0061D7CF91110C942E
:100D00008807803219F089508550C8F70895FC0192
:100D10000590061621F00020D9F7C00108953197FB
:100D2000CF010895FC010590615070400110D8F783
:100D3000809590958E0F9F1F0895FC016150704023
:100D400001900110D8F7809590958E0F9F1F089500
:100D5000CF93DF93EC012B8120FF2FC026FF0CC027
:100D60002F7B2B838E819F8101969F838E838A8127
:100D700090E0DF91CF91089522FF14C0E881F981BE
:100D80008081082E000C990B20620097A9F0319603
:100D9000F983E8832E813F812F5F3F4F3F832E836E
:100DA0009927E7CFEA85FB85099597FFF3CF2B813C
:100DB000019631F080E2282B2B838FEF9FEFD9CF64
:100DC00080E1F9CF0F931F93CF93DF93182F092F53
:100DD000EB018B8181FD09C01FEF0FEF812F902F59
:100DE000DF91CF911F910F91089582FF14C02E8142
:100DF0003F818C819D81281739073CF4E881F98176
:100E0000CF0101969983888310838E819F810196FB
:100E10009F838E83E3CFE885F985812F0995892B00
:100E2000A1F3DACFFB01238120FF11C026FD0FC003
:100E30008F3F980771F082832F7D20642383268162
:100E400037812150310937832683992708958FEF01
:100E50009FEF0895FA01AA27283051F1203181F13E
:100E6000E8946F936E7F6E5F7F4F8F4F9F4FAF4FB2
:100E7000B1E03ED0B4E03CD0670F781F891F9A1FC5
:100E8000A11D680F791F8A1F911DA11D6A0F711D79
:100E9000811D911DA11D20D009F468943F912AE085
:100EA000269F11243019305D3193DEF6CF0108956D
:100EB000462F4770405D4193B3E00FD0C9F7F6CF9E
:100EC000462F4F70405D4A3318F0495D31FD405266
:100ED000419302D0A9F7EACFB4E0A69597958795FC
:100EE00077956795BA95C9F70097610571050895DB
:100EF0009B01AC010A2E0694579547953795279587
:100F0000BA95C9F7620F731F841F951FA01D08951E
:100F10009927882708952F923F924F925F926F9260
:100F20007F928F929F92AF92BF92CF92DF92EF9279
:100F3000FF920F931F93CF93DF93CDB7DEB7CA1BFA
:100F4000DB0B0FB6F894DEBF0FBECDBF09942A8825
:100F5000398848885F846E847D848C849B84AA84CD
:100F6000B984C884DF80EE80FD800C811B81AA815A
:100F7000B981CE0FD11D0FB6F894DEBF0FBECDBF25
:080F8000ED010895F894FFCF84
:100F880000000001000000000000790000000000DF
:100F98000002000000006A000000000000005E017E
:100FA800200048656C6C6F20776F726C64210A00B2
:100FB8002563252A63002539395B302D39612D7A5F
:100FC800412D5A205D00596F752077726F74652026
:040FD80025730A0073
:00000001FF
